{
  "_format": "hh-sol-artifact-1",
  "contractName": "DigitalObjectNFT",
  "sourceName": "contracts/DigitalObjectNFT.sol",
  "abi": [
    {
      "inputs": [
        {
          "internalType": "string",
          "name": "name",
          "type": "string"
        },
        {
          "internalType": "string",
          "name": "symbol",
          "type": "string"
        },
        {
          "internalType": "string",
          "name": "baseURI",
          "type": "string"
        }
      ],
      "stateMutability": "nonpayable",
      "type": "constructor"
    },
    {
      "inputs": [
        {
          "internalType": "address",
          "name": "sender",
          "type": "address"
        },
        {
          "internalType": "uint256",
          "name": "tokenId",
          "type": "uint256"
        },
        {
          "internalType": "address",
          "name": "owner",
          "type": "address"
        }
      ],
      "name": "ERC721IncorrectOwner",
      "type": "error"
    },
    {
      "inputs": [
        {
          "internalType": "address",
          "name": "operator",
          "type": "address"
        },
        {
          "internalType": "uint256",
          "name": "tokenId",
          "type": "uint256"
        }
      ],
      "name": "ERC721InsufficientApproval",
      "type": "error"
    },
    {
      "inputs": [
        {
          "internalType": "address",
          "name": "approver",
          "type": "address"
        }
      ],
      "name": "ERC721InvalidApprover",
      "type": "error"
    },
    {
      "inputs": [
        {
          "internalType": "address",
          "name": "operator",
          "type": "address"
        }
      ],
      "name": "ERC721InvalidOperator",
      "type": "error"
    },
    {
      "inputs": [
        {
          "internalType": "address",
          "name": "owner",
          "type": "address"
        }
      ],
      "name": "ERC721InvalidOwner",
      "type": "error"
    },
    {
      "inputs": [
        {
          "internalType": "address",
          "name": "receiver",
          "type": "address"
        }
      ],
      "name": "ERC721InvalidReceiver",
      "type": "error"
    },
    {
      "inputs": [
        {
          "internalType": "address",
          "name": "sender",
          "type": "address"
        }
      ],
      "name": "ERC721InvalidSender",
      "type": "error"
    },
    {
      "inputs": [
        {
          "internalType": "uint256",
          "name": "tokenId",
          "type": "uint256"
        }
      ],
      "name": "ERC721NonexistentToken",
      "type": "error"
    },
    {
      "inputs": [
        {
          "internalType": "address",
          "name": "owner",
          "type": "address"
        }
      ],
      "name": "OwnableInvalidOwner",
      "type": "error"
    },
    {
      "inputs": [
        {
          "internalType": "address",
          "name": "account",
          "type": "address"
        }
      ],
      "name": "OwnableUnauthorizedAccount",
      "type": "error"
    },
    {
      "anonymous": false,
      "inputs": [
        {
          "indexed": true,
          "internalType": "address",
          "name": "owner",
          "type": "address"
        },
        {
          "indexed": true,
          "internalType": "address",
          "name": "approved",
          "type": "address"
        },
        {
          "indexed": true,
          "internalType": "uint256",
          "name": "tokenId",
          "type": "uint256"
        }
      ],
      "name": "Approval",
      "type": "event"
    },
    {
      "anonymous": false,
      "inputs": [
        {
          "indexed": true,
          "internalType": "address",
          "name": "owner",
          "type": "address"
        },
        {
          "indexed": true,
          "internalType": "address",
          "name": "operator",
          "type": "address"
        },
        {
          "indexed": false,
          "internalType": "bool",
          "name": "approved",
          "type": "bool"
        }
      ],
      "name": "ApprovalForAll",
      "type": "event"
    },
    {
      "anonymous": false,
      "inputs": [
        {
          "indexed": true,
          "internalType": "uint256",
          "name": "tokenId",
          "type": "uint256"
        },
        {
          "indexed": true,
          "internalType": "address",
          "name": "to",
          "type": "address"
        },
        {
          "indexed": false,
          "internalType": "string",
          "name": "seedURI",
          "type": "string"
        }
      ],
      "name": "Minted",
      "type": "event"
    },
    {
      "anonymous": false,
      "inputs": [
        {
          "indexed": true,
          "internalType": "address",
          "name": "previousOwner",
          "type": "address"
        },
        {
          "indexed": true,
          "internalType": "address",
          "name": "newOwner",
          "type": "address"
        }
      ],
      "name": "OwnershipTransferred",
      "type": "event"
    },
    {
      "anonymous": false,
      "inputs": [
        {
          "indexed": true,
          "internalType": "uint256",
          "name": "tokenId",
          "type": "uint256"
        },
        {
          "indexed": false,
          "internalType": "uint32",
          "name": "forksOut",
          "type": "uint32"
        },
        {
          "indexed": false,
          "internalType": "uint32",
          "name": "forksIn",
          "type": "uint32"
        },
        {
          "indexed": false,
          "internalType": "uint32",
          "name": "attestCount",
          "type": "uint32"
        },
        {
          "indexed": false,
          "internalType": "uint16",
          "name": "score",
          "type": "uint16"
        },
        {
          "indexed": false,
          "internalType": "bytes32",
          "name": "ref",
          "type": "bytes32"
        }
      ],
      "name": "StatsUpdated",
      "type": "event"
    },
    {
      "anonymous": false,
      "inputs": [
        {
          "indexed": true,
          "internalType": "address",
          "name": "from",
          "type": "address"
        },
        {
          "indexed": true,
          "internalType": "address",
          "name": "to",
          "type": "address"
        },
        {
          "indexed": true,
          "internalType": "uint256",
          "name": "tokenId",
          "type": "uint256"
        }
      ],
      "name": "Transfer",
      "type": "event"
    },
    {
      "inputs": [
        {
          "internalType": "address",
          "name": "to",
          "type": "address"
        },
        {
          "internalType": "uint256",
          "name": "tokenId",
          "type": "uint256"
        }
      ],
      "name": "approve",
      "outputs": [],
      "stateMutability": "nonpayable",
      "type": "function"
    },
    {
      "inputs": [
        {
          "internalType": "address",
          "name": "owner",
          "type": "address"
        }
      ],
      "name": "balanceOf",
      "outputs": [
        {
          "internalType": "uint256",
          "name": "",
          "type": "uint256"
        }
      ],
      "stateMutability": "view",
      "type": "function"
    },
    {
      "inputs": [
        {
          "internalType": "uint256",
          "name": "tokenId",
          "type": "uint256"
        }
      ],
      "name": "getApproved",
      "outputs": [
        {
          "internalType": "address",
          "name": "",
          "type": "address"
        }
      ],
      "stateMutability": "view",
      "type": "function"
    },
    {
      "inputs": [
        {
          "internalType": "address",
          "name": "owner",
          "type": "address"
        },
        {
          "internalType": "address",
          "name": "operator",
          "type": "address"
        }
      ],
      "name": "isApprovedForAll",
      "outputs": [
        {
          "internalType": "bool",
          "name": "",
          "type": "bool"
        }
      ],
      "stateMutability": "view",
      "type": "function"
    },
    {
      "inputs": [
        {
          "internalType": "address",
          "name": "to",
          "type": "address"
        },
        {
          "internalType": "string",
          "name": "seedURI",
          "type": "string"
        }
      ],
      "name": "mint",
      "outputs": [
        {
          "internalType": "uint256",
          "name": "tokenId",
          "type": "uint256"
        }
      ],
      "stateMutability": "nonpayable",
      "type": "function"
    },
    {
      "inputs": [],
      "name": "name",
      "outputs": [
        {
          "internalType": "string",
          "name": "",
          "type": "string"
        }
      ],
      "stateMutability": "view",
      "type": "function"
    },
    {
      "inputs": [],
      "name": "owner",
      "outputs": [
        {
          "internalType": "address",
          "name": "",
          "type": "address"
        }
      ],
      "stateMutability": "view",
      "type": "function"
    },
    {
      "inputs": [
        {
          "internalType": "uint256",
          "name": "tokenId",
          "type": "uint256"
        }
      ],
      "name": "ownerOf",
      "outputs": [
        {
          "internalType": "address",
          "name": "",
          "type": "address"
        }
      ],
      "stateMutability": "view",
      "type": "function"
    },
    {
      "inputs": [],
      "name": "renounceOwnership",
      "outputs": [],
      "stateMutability": "nonpayable",
      "type": "function"
    },
    {
      "inputs": [
        {
          "internalType": "address",
          "name": "from",
          "type": "address"
        },
        {
          "internalType": "address",
          "name": "to",
          "type": "address"
        },
        {
          "internalType": "uint256",
          "name": "tokenId",
          "type": "uint256"
        }
      ],
      "name": "safeTransferFrom",
      "outputs": [],
      "stateMutability": "nonpayable",
      "type": "function"
    },
    {
      "inputs": [
        {
          "internalType": "address",
          "name": "from",
          "type": "address"
        },
        {
          "internalType": "address",
          "name": "to",
          "type": "address"
        },
        {
          "internalType": "uint256",
          "name": "tokenId",
          "type": "uint256"
        },
        {
          "internalType": "bytes",
          "name": "data",
          "type": "bytes"
        }
      ],
      "name": "safeTransferFrom",
      "outputs": [],
      "stateMutability": "nonpayable",
      "type": "function"
    },
    {
      "inputs": [
        {
          "internalType": "uint256",
          "name": "tokenId",
          "type": "uint256"
        }
      ],
      "name": "seedURI",
      "outputs": [
        {
          "internalType": "string",
          "name": "",
          "type": "string"
        }
      ],
      "stateMutability": "view",
      "type": "function"
    },
    {
      "inputs": [
        {
          "internalType": "address",
          "name": "operator",
          "type": "address"
        },
        {
          "internalType": "bool",
          "name": "approved",
          "type": "bool"
        }
      ],
      "name": "setApprovalForAll",
      "outputs": [],
      "stateMutability": "nonpayable",
      "type": "function"
    },
    {
      "inputs": [
        {
          "internalType": "string",
          "name": "baseURI",
          "type": "string"
        }
      ],
      "name": "setBaseURI",
      "outputs": [],
      "stateMutability": "nonpayable",
      "type": "function"
    },
    {
      "inputs": [
        {
          "internalType": "uint256",
          "name": "",
          "type": "uint256"
        }
      ],
      "name": "stats",
      "outputs": [
        {
          "internalType": "uint32",
          "name": "forksOut",
          "type": "uint32"
        },
        {
          "internalType": "uint32",
          "name": "forksIn",
          "type": "uint32"
        },
        {
          "internalType": "uint32",
          "name": "attestCount",
          "type": "uint32"
        },
        {
          "internalType": "uint16",
          "name": "score",
          "type": "uint16"
        }
      ],
      "stateMutability": "view",
      "type": "function"
    },
    {
      "inputs": [
        {
          "internalType": "bytes4",
          "name": "interfaceId",
          "type": "bytes4"
        }
      ],
      "name": "supportsInterface",
      "outputs": [
        {
          "internalType": "bool",
          "name": "",
          "type": "bool"
        }
      ],
      "stateMutability": "view",
      "type": "function"
    },
    {
      "inputs": [],
      "name": "symbol",
      "outputs": [
        {
          "internalType": "string",
          "name": "",
          "type": "string"
        }
      ],
      "stateMutability": "view",
      "type": "function"
    },
    {
      "inputs": [
        {
          "internalType": "uint256",
          "name": "tokenId",
          "type": "uint256"
        }
      ],
      "name": "tokenURI",
      "outputs": [
        {
          "internalType": "string",
          "name": "",
          "type": "string"
        }
      ],
      "stateMutability": "view",
      "type": "function"
    },
    {
      "inputs": [],
      "name": "totalSupply",
      "outputs": [
        {
          "internalType": "uint256",
          "name": "",
          "type": "uint256"
        }
      ],
      "stateMutability": "view",
      "type": "function"
    },
    {
      "inputs": [
        {
          "internalType": "address",
          "name": "from",
          "type": "address"
        },
        {
          "internalType": "address",
          "name": "to",
          "type": "address"
        },
        {
          "internalType": "uint256",
          "name": "tokenId",
          "type": "uint256"
        }
      ],
      "name": "transferFrom",
      "outputs": [],
      "stateMutability": "nonpayable",
      "type": "function"
    },
    {
      "inputs": [
        {
          "internalType": "address",
          "name": "newOwner",
          "type": "address"
        }
      ],
      "name": "transferOwnership",
      "outputs": [],
      "stateMutability": "nonpayable",
      "type": "function"
    },
    {
      "inputs": [
        {
          "internalType": "uint256",
          "name": "tokenId",
          "type": "uint256"
        },
        {
          "internalType": "uint32",
          "name": "forksOut",
          "type": "uint32"
        },
        {
          "internalType": "uint32",
          "name": "forksIn",
          "type": "uint32"
        },
        {
          "internalType": "uint32",
          "name": "attestCount",
          "type": "uint32"
        },
        {
          "internalType": "uint16",
          "name": "score",
          "type": "uint16"
        },
        {
          "internalType": "bytes32",
          "name": "ref",
          "type": "bytes32"
        }
      ],
      "name": "updateStats",
      "outputs": [],
      "stateMutability": "nonpayable",
      "type": "function"
    }
  ],
  "bytecode": "0x608060405260016007553480156200001657600080fd5b50604051620035c9380380620035c983398181016040528101906200003c919062000360565b338383816000908162000050919062000664565b50806001908162000062919062000664565b505050600073ffffffffffffffffffffffffffffffffffffffff168173ffffffffffffffffffffffffffffffffffffffff1603620000da5760006040517f1e4fbdf7000000000000000000000000000000000000000000000000000000008152600401620000d1919062000790565b60405180910390fd5b620000eb816200010760201b60201c565b508060089081620000fd919062000664565b50505050620007ad565b6000600660009054906101000a900473ffffffffffffffffffffffffffffffffffffffff16905081600660006101000a81548173ffffffffffffffffffffffffffffffffffffffff021916908373ffffffffffffffffffffffffffffffffffffffff1602179055508173ffffffffffffffffffffffffffffffffffffffff168173ffffffffffffffffffffffffffffffffffffffff167f8be0079c531659141344cd1fd0a4f28419497f9722a3daafe3b4186f6b6457e060405160405180910390a35050565b6000604051905090565b600080fd5b600080fd5b600080fd5b600080fd5b6000601f19601f8301169050919050565b7f4e487b7100000000000000000000000000000000000000000000000000000000600052604160045260246000fd5b6200023682620001eb565b810181811067ffffffffffffffff82111715620002585762000257620001fc565b5b80604052505050565b60006200026d620001cd565b90506200027b82826200022b565b919050565b600067ffffffffffffffff8211156200029e576200029d620001fc565b5b620002a982620001eb565b9050602081019050919050565b60005b83811015620002d6578082015181840152602081019050620002b9565b60008484015250505050565b6000620002f9620002f38462000280565b62000261565b905082815260208101848484011115620003185762000317620001e6565b5b62000325848285620002b6565b509392505050565b600082601f830112620003455762000344620001e1565b5b815162000357848260208601620002e2565b91505092915050565b6000806000606084860312156200037c576200037b620001d7565b5b600084015167ffffffffffffffff8111156200039d576200039c620001dc565b5b620003ab868287016200032d565b935050602084015167ffffffffffffffff811115620003cf57620003ce620001dc565b5b620003dd868287016200032d565b925050604084015167ffffffffffffffff811115620004015762000400620001dc565b5b6200040f868287016200032d565b9150509250925092565b600081519050919050565b7f4e487b7100000000000000000000000000000000000000000000000000000000600052602260045260246000fd5b600060028204905060018216806200046c57607f821691505b60208210810362000482576200048162000424565b5b50919050565b60008190508160005260206000209050919050565b60006020601f8301049050919050565b600082821b905092915050565b600060088302620004ec7fffffffffffffffffffffffffffffffffffffffffffffffffffffffffffffffff82620004ad565b620004f88683620004ad565b95508019841693508086168417925050509392505050565b6000819050919050565b6000819050919050565b6000620005456200053f620005398462000510565b6200051a565b62000510565b9050919050565b6000819050919050565b620005618362000524565b6200057962000570826200054c565b848454620004ba565b825550505050565b600090565b6200059062000581565b6200059d81848462000556565b505050565b5b81811015620005c557620005b960008262000586565b600181019050620005a3565b5050565b601f8211156200061457620005de8162000488565b620005e9846200049d565b81016020851015620005f9578190505b6200061162000608856200049d565b830182620005a2565b50505b505050565b600082821c905092915050565b6000620006396000198460080262000619565b1980831691505092915050565b600062000654838362000626565b9150826002028217905092915050565b6200066f8262000419565b67ffffffffffffffff8111156200068b576200068a620001fc565b5b62000697825462000453565b620006a4828285620005c9565b600060209050601f831160018114620006dc5760008415620006c7578287015190505b620006d3858262000646565b86555062000743565b601f198416620006ec8662000488565b60005b828110156200071657848901518255600182019150602085019450602081019050620006ef565b8683101562000736578489015162000732601f89168262000626565b8355505b6001600288020188555050505b505050505050565b600073ffffffffffffffffffffffffffffffffffffffff82169050919050565b600062000778826200074b565b9050919050565b6200078a816200076b565b82525050565b6000602082019050620007a760008301846200077f565b92915050565b612e0c80620007bd6000396000f3fe608060405234801561001057600080fd5b50600436106101425760003560e01c80638da5cb5b116100b8578063b0eef1291161007c578063b0eef12914610378578063b88d4fde14610394578063c87b56dd146103b0578063d0def521146103e0578063e985e9c514610410578063f2fde38b1461044057610142565b80638da5cb5b146102bd5780638e68e8ab146102db57806395d89b411461030b578063a22cb46514610329578063ad217ae51461034557610142565b806323b872dd1161010a57806323b872dd146101ff57806342842e0e1461021b57806355f804b3146102375780636352211e1461025357806370a0823114610283578063715018a6146102b357610142565b806301ffc9a71461014757806306fdde0314610177578063081812fc14610195578063095ea7b3146101c557806318160ddd146101e1575b600080fd5b610161600480360381019061015c9190611f5c565b61045c565b60405161016e9190611fa4565b60405180910390f35b61017f61053e565b60405161018c919061204f565b60405180910390f35b6101af60048036038101906101aa91906120a7565b6105d0565b6040516101bc9190612115565b60405180910390f35b6101df60048036038101906101da919061215c565b6105ec565b005b6101e9610602565b6040516101f691906121ab565b60405180910390f35b610219600480360381019061021491906121c6565b610618565b005b610235600480360381019061023091906121c6565b61071a565b005b610251600480360381019061024c919061227e565b61073a565b005b61026d600480360381019061026891906120a7565b610758565b60405161027a9190612115565b60405180910390f35b61029d600480360381019061029891906122cb565b61076a565b6040516102aa91906121ab565b60405180910390f35b6102bb610824565b005b6102c5610838565b6040516102d29190612115565b60405180910390f35b6102f560048036038101906102f091906120a7565b610862565b604051610302919061204f565b60405180910390f35b61031361097e565b604051610320919061204f565b60405180910390f35b610343600480360381019061033e9190612324565b610a10565b005b61035f600480360381019061035a91906120a7565b610a26565b60405161036f94939291906123a0565b60405180910390f35b610392600480360381019061038d9190612473565b610a94565b005b6103ae60048036038101906103a99190612630565b610c40565b005b6103ca60048036038101906103c591906120a7565b610c65565b6040516103d7919061204f565b60405180910390f35b6103fa60048036038101906103f591906126b3565b610df1565b60405161040791906121ab565b60405180910390f35b61042a60048036038101906104259190612713565b610e91565b6040516104379190611fa4565b60405180910390f35b61045a600480360381019061045591906122cb565b610f25565b005b60007f80ac58cd000000000000000000000000000000000000000000000000000000007bffffffffffffffffffffffffffffffffffffffffffffffffffffffff1916827bffffffffffffffffffffffffffffffffffffffffffffffffffffffff1916148061052757507f5b5e139f000000000000000000000000000000000000000000000000000000007bffffffffffffffffffffffffffffffffffffffffffffffffffffffff1916827bffffffffffffffffffffffffffffffffffffffffffffffffffffffff1916145b80610537575061053682610fab565b5b9050919050565b60606000805461054d90612782565b80601f016020809104026020016040519081016040528092919081815260200182805461057990612782565b80156105c65780601f1061059b576101008083540402835291602001916105c6565b820191906000526020600020905b8154815290600101906020018083116105a957829003601f168201915b5050505050905090565b60006105db82611015565b506105e58261109d565b9050919050565b6105fe82826105f96110da565b6110e2565b5050565b6000600160075461061391906127e2565b905090565b600073ffffffffffffffffffffffffffffffffffffffff168273ffffffffffffffffffffffffffffffffffffffff160361068a5760006040517f64a0ae920000000000000000000000000000000000000000000000000000000081526004016106819190612115565b60405180910390fd5b600061069e83836106996110da565b6110f4565b90508373ffffffffffffffffffffffffffffffffffffffff168173ffffffffffffffffffffffffffffffffffffffff1614610714578382826040517f64283d7b00000000000000000000000000000000000000000000000000000000815260040161070b93929190612816565b60405180910390fd5b50505050565b61073583838360405180602001604052806000815250610c40565b505050565b61074261130e565b818160089182610753929190612a04565b505050565b600061076382611015565b9050919050565b60008073ffffffffffffffffffffffffffffffffffffffff168273ffffffffffffffffffffffffffffffffffffffff16036107dd5760006040517f89c62b640000000000000000000000000000000000000000000000000000000081526004016107d49190612115565b60405180910390fd5b600360008373ffffffffffffffffffffffffffffffffffffffff1673ffffffffffffffffffffffffffffffffffffffff168152602001908152602001600020549050919050565b61082c61130e565b6108366000611395565b565b6000600660009054906101000a900473ffffffffffffffffffffffffffffffffffffffff16905090565b6060600073ffffffffffffffffffffffffffffffffffffffff166108858361145b565b73ffffffffffffffffffffffffffffffffffffffff16036108db576040517f08c379a00000000000000000000000000000000000000000000000000000000081526004016108d290612b20565b60405180910390fd5b6009600083815260200190815260200160002080546108f990612782565b80601f016020809104026020016040519081016040528092919081815260200182805461092590612782565b80156109725780601f1061094757610100808354040283529160200191610972565b820191906000526020600020905b81548152906001019060200180831161095557829003601f168201915b50505050509050919050565b60606001805461098d90612782565b80601f01602080910402602001604051908101604052809291908181526020018280546109b990612782565b8015610a065780601f106109db57610100808354040283529160200191610a06565b820191906000526020600020905b8154815290600101906020018083116109e957829003601f168201915b5050505050905090565b610a22610a1b6110da565b8383611498565b5050565b600a6020528060005260406000206000915090508060000160009054906101000a900463ffffffff16908060000160049054906101000a900463ffffffff16908060000160089054906101000a900463ffffffff169080600001600c9054906101000a900461ffff16905084565b610a9c61130e565b600073ffffffffffffffffffffffffffffffffffffffff16610abd8761145b565b73ffffffffffffffffffffffffffffffffffffffff1603610b13576040517f08c379a0000000000000000000000000000000000000000000000000000000008152600401610b0a90612b20565b60405180910390fd5b60405180608001604052808663ffffffff1681526020018563ffffffff1681526020018463ffffffff1681526020018361ffff16815250600a600088815260200190815260200160002060008201518160000160006101000a81548163ffffffff021916908363ffffffff16021790555060208201518160000160046101000a81548163ffffffff021916908363ffffffff16021790555060408201518160000160086101000a81548163ffffffff021916908363ffffffff160217905550606082015181600001600c6101000a81548161ffff021916908361ffff160217905550905050857f81f7d2dbf19fc8cf9f3e7e2a6dea0968a6e74023ec9f05d4dcba435357b8d4768686868686604051610c30959493929190612b4f565b60405180910390a2505050505050565b610c4b848484610618565b610c5f610c566110da565b85858585611607565b50505050565b6060600073ffffffffffffffffffffffffffffffffffffffff16610c888361145b565b73ffffffffffffffffffffffffffffffffffffffff1603610cde576040517f08c379a0000000000000000000000000000000000000000000000000000000008152600401610cd590612b20565b60405180910390fd5b6000610ce86117b8565b90506000600960008581526020019081526020016000208054610d0a90612782565b80601f0160208091040260200160405190810160405280929190818152602001828054610d3690612782565b8015610d835780601f10610d5857610100808354040283529160200191610d83565b820191906000526020600020905b815481529060010190602001808311610d6657829003601f168201915b50505050509050600081511115610d9e578092505050610dec565b6000825111610dbc5760405180602001604052806000815250610de7565b81610dc68561184a565b604051602001610dd7929190612bde565b6040516020818303038152906040525b925050505b919050565b600060076000815480929190610e0690612c02565b919050559050610e168482611918565b8282600960008481526020019081526020016000209182610e38929190612a04565b508373ffffffffffffffffffffffffffffffffffffffff16817f3b8a974a6971dbe70c8718ec80406b2790d2aa5477b6a5bed3d94fa19e06d60d8585604051610e82929190612c77565b60405180910390a39392505050565b6000600560008473ffffffffffffffffffffffffffffffffffffffff1673ffffffffffffffffffffffffffffffffffffffff16815260200190815260200160002060008373ffffffffffffffffffffffffffffffffffffffff1673ffffffffffffffffffffffffffffffffffffffff16815260200190815260200160002060009054906101000a900460ff16905092915050565b610f2d61130e565b600073ffffffffffffffffffffffffffffffffffffffff168173ffffffffffffffffffffffffffffffffffffffff1603610f9f5760006040517f1e4fbdf7000000000000000000000000000000000000000000000000000000008152600401610f969190612115565b60405180910390fd5b610fa881611395565b50565b60007f01ffc9a7000000000000000000000000000000000000000000000000000000007bffffffffffffffffffffffffffffffffffffffffffffffffffffffff1916827bffffffffffffffffffffffffffffffffffffffffffffffffffffffff1916149050919050565b6000806110218361145b565b9050600073ffffffffffffffffffffffffffffffffffffffff168173ffffffffffffffffffffffffffffffffffffffff160361109457826040517f7e27328900000000000000000000000000000000000000000000000000000000815260040161108b91906121ab565b60405180910390fd5b80915050919050565b60006004600083815260200190815260200160002060009054906101000a900473ffffffffffffffffffffffffffffffffffffffff169050919050565b600033905090565b6110ef8383836001611936565b505050565b6000806111008461145b565b9050600073ffffffffffffffffffffffffffffffffffffffff168373ffffffffffffffffffffffffffffffffffffffff161461114257611141818486611afb565b5b600073ffffffffffffffffffffffffffffffffffffffff168173ffffffffffffffffffffffffffffffffffffffff16146111d357611184600085600080611936565b6001600360008373ffffffffffffffffffffffffffffffffffffffff1673ffffffffffffffffffffffffffffffffffffffff168152602001908152602001600020600082825403925050819055505b600073ffffffffffffffffffffffffffffffffffffffff168573ffffffffffffffffffffffffffffffffffffffff1614611256576001600360008773ffffffffffffffffffffffffffffffffffffffff1673ffffffffffffffffffffffffffffffffffffffff168152602001908152602001600020600082825401925050819055505b846002600086815260200190815260200160002060006101000a81548173ffffffffffffffffffffffffffffffffffffffff021916908373ffffffffffffffffffffffffffffffffffffffff160217905550838573ffffffffffffffffffffffffffffffffffffffff168273ffffffffffffffffffffffffffffffffffffffff167fddf252ad1be2c89b69c2b068fc378daa952ba7f163c4a11628f55a4df523b3ef60405160405180910390a4809150509392505050565b6113166110da565b73ffffffffffffffffffffffffffffffffffffffff16611334610838565b73ffffffffffffffffffffffffffffffffffffffff1614611393576113576110da565b6040517f118cdaa700000000000000000000000000000000000000000000000000000000815260040161138a9190612115565b60405180910390fd5b565b6000600660009054906101000a900473ffffffffffffffffffffffffffffffffffffffff16905081600660006101000a81548173ffffffffffffffffffffffffffffffffffffffff021916908373ffffffffffffffffffffffffffffffffffffffff1602179055508173ffffffffffffffffffffffffffffffffffffffff168173ffffffffffffffffffffffffffffffffffffffff167f8be0079c531659141344cd1fd0a4f28419497f9722a3daafe3b4186f6b6457e060405160405180910390a35050565b60006002600083815260200190815260200160002060009054906101000a900473ffffffffffffffffffffffffffffffffffffffff169050919050565b600073ffffffffffffffffffffffffffffffffffffffff168273ffffffffffffffffffffffffffffffffffffffff160361150957816040517f5b08ba180000000000000000000000000000000000000000000000000000000081526004016115009190612115565b60405180910390fd5b80600560008573ffffffffffffffffffffffffffffffffffffffff1673ffffffffffffffffffffffffffffffffffffffff16815260200190815260200160002060008473ffffffffffffffffffffffffffffffffffffffff1673ffffffffffffffffffffffffffffffffffffffff16815260200190815260200160002060006101000a81548160ff0219169083151502179055508173ffffffffffffffffffffffffffffffffffffffff168373ffffffffffffffffffffffffffffffffffffffff167f17307eab39ab6107e8899845ad3d59bd9653f200f220920489ca2b5937696c31836040516115fa9190611fa4565b60405180910390a3505050565b60008373ffffffffffffffffffffffffffffffffffffffff163b11156117b1578273ffffffffffffffffffffffffffffffffffffffff1663150b7a02868685856040518563ffffffff1660e01b81526004016116669493929190612cf0565b6020604051808303816000875af19250505080156116a257506040513d601f19601f8201168201806040525081019061169f9190612d51565b60015b611726573d80600081146116d2576040519150601f19603f3d011682016040523d82523d6000602084013e6116d7565b606091505b50600081510361171e57836040517f64a0ae920000000000000000000000000000000000000000000000000000000081526004016117159190612115565b60405180910390fd5b805160208201fd5b63150b7a0260e01b7bffffffffffffffffffffffffffffffffffffffffffffffffffffffff1916817bffffffffffffffffffffffffffffffffffffffffffffffffffffffff1916146117af57836040517f64a0ae920000000000000000000000000000000000000000000000000000000081526004016117a69190612115565b60405180910390fd5b505b5050505050565b6060600880546117c790612782565b80601f01602080910402602001604051908101604052809291908181526020018280546117f390612782565b80156118405780601f1061181557610100808354040283529160200191611840565b820191906000526020600020905b81548152906001019060200180831161182357829003601f168201915b5050505050905090565b60606000600161185984611bbf565b01905060008167ffffffffffffffff81111561187857611877612505565b5b6040519080825280601f01601f1916602001820160405280156118aa5781602001600182028036833780820191505090505b509050600082602083010190505b60011561190d578080600190039150507f3031323334353637383961626364656600000000000000000000000000000000600a86061a8153600a858161190157611900612d7e565b5b049450600085036118b8575b819350505050919050565b611932828260405180602001604052806000815250611d12565b5050565b808061196f5750600073ffffffffffffffffffffffffffffffffffffffff168273ffffffffffffffffffffffffffffffffffffffff1614155b15611aa357600061197f84611015565b9050600073ffffffffffffffffffffffffffffffffffffffff168373ffffffffffffffffffffffffffffffffffffffff16141580156119ea57508273ffffffffffffffffffffffffffffffffffffffff168173ffffffffffffffffffffffffffffffffffffffff1614155b80156119fd57506119fb8184610e91565b155b15611a3f57826040517fa9fbf51f000000000000000000000000000000000000000000000000000000008152600401611a369190612115565b60405180910390fd5b8115611aa157838573ffffffffffffffffffffffffffffffffffffffff168273ffffffffffffffffffffffffffffffffffffffff167f8c5be1e5ebec7d5bd14f71427d1e84f3dd0314c0f7b2291e5b200ac8c7c3b92560405160405180910390a45b505b836004600085815260200190815260200160002060006101000a81548173ffffffffffffffffffffffffffffffffffffffff021916908373ffffffffffffffffffffffffffffffffffffffff16021790555050505050565b611b06838383611d36565b611bba57600073ffffffffffffffffffffffffffffffffffffffff168373ffffffffffffffffffffffffffffffffffffffff1603611b7b57806040517f7e273289000000000000000000000000000000000000000000000000000000008152600401611b7291906121ab565b60405180910390fd5b81816040517f177e802f000000000000000000000000000000000000000000000000000000008152600401611bb1929190612dad565b60405180910390fd5b505050565b600080600090507a184f03e93ff9f4daa797ed6e38ed64bf6a1f0100000000000000008310611c1d577a184f03e93ff9f4daa797ed6e38ed64bf6a1f0100000000000000008381611c1357611c12612d7e565b5b0492506040810190505b6d04ee2d6d415b85acef81000000008310611c5a576d04ee2d6d415b85acef81000000008381611c5057611c4f612d7e565b5b0492506020810190505b662386f26fc100008310611c8957662386f26fc100008381611c7f57611c7e612d7e565b5b0492506010810190505b6305f5e1008310611cb2576305f5e1008381611ca857611ca7612d7e565b5b0492506008810190505b6127108310611cd7576127108381611ccd57611ccc612d7e565b5b0492506004810190505b60648310611cfa5760648381611cf057611cef612d7e565b5b0492506002810190505b600a8310611d09576001810190505b80915050919050565b611d1c8383611df7565b611d31611d276110da565b6000858585611607565b505050565b60008073ffffffffffffffffffffffffffffffffffffffff168373ffffffffffffffffffffffffffffffffffffffff1614158015611dee57508273ffffffffffffffffffffffffffffffffffffffff168473ffffffffffffffffffffffffffffffffffffffff161480611daf5750611dae8484610e91565b5b80611ded57508273ffffffffffffffffffffffffffffffffffffffff16611dd58361109d565b73ffffffffffffffffffffffffffffffffffffffff16145b5b90509392505050565b600073ffffffffffffffffffffffffffffffffffffffff168273ffffffffffffffffffffffffffffffffffffffff1603611e695760006040517f64a0ae92000000000000000000000000000000000000000000000000000000008152600401611e609190612115565b60405180910390fd5b6000611e77838360006110f4565b9050600073ffffffffffffffffffffffffffffffffffffffff168173ffffffffffffffffffffffffffffffffffffffff1614611eeb5760006040517f73c6ac6e000000000000000000000000000000000000000000000000000000008152600401611ee29190612115565b60405180910390fd5b505050565b6000604051905090565b600080fd5b600080fd5b60007fffffffff0000000000000000000000000000000000000000000000000000000082169050919050565b611f3981611f04565b8114611f4457600080fd5b50565b600081359050611f5681611f30565b92915050565b600060208284031215611f7257611f71611efa565b5b6000611f8084828501611f47565b91505092915050565b60008115159050919050565b611f9e81611f89565b82525050565b6000602082019050611fb96000830184611f95565b92915050565b600081519050919050565b600082825260208201905092915050565b60005b83811015611ff9578082015181840152602081019050611fde565b60008484015250505050565b6000601f19601f8301169050919050565b600061202182611fbf565b61202b8185611fca565b935061203b818560208601611fdb565b61204481612005565b840191505092915050565b600060208201905081810360008301526120698184612016565b905092915050565b6000819050919050565b61208481612071565b811461208f57600080fd5b50565b6000813590506120a18161207b565b92915050565b6000602082840312156120bd576120bc611efa565b5b60006120cb84828501612092565b91505092915050565b600073ffffffffffffffffffffffffffffffffffffffff82169050919050565b60006120ff826120d4565b9050919050565b61210f816120f4565b82525050565b600060208201905061212a6000830184612106565b92915050565b612139816120f4565b811461214457600080fd5b50565b60008135905061215681612130565b92915050565b6000806040838503121561217357612172611efa565b5b600061218185828601612147565b925050602061219285828601612092565b9150509250929050565b6121a581612071565b82525050565b60006020820190506121c0600083018461219c565b92915050565b6000806000606084860312156121df576121de611efa565b5b60006121ed86828701612147565b93505060206121fe86828701612147565b925050604061220f86828701612092565b9150509250925092565b600080fd5b600080fd5b600080fd5b60008083601f84011261223e5761223d612219565b5b8235905067ffffffffffffffff81111561225b5761225a61221e565b5b60208301915083600182028301111561227757612276612223565b5b9250929050565b6000806020838503121561229557612294611efa565b5b600083013567ffffffffffffffff8111156122b3576122b2611eff565b5b6122bf85828601612228565b92509250509250929050565b6000602082840312156122e1576122e0611efa565b5b60006122ef84828501612147565b91505092915050565b61230181611f89565b811461230c57600080fd5b50565b60008135905061231e816122f8565b92915050565b6000806040838503121561233b5761233a611efa565b5b600061234985828601612147565b925050602061235a8582860161230f565b9150509250929050565b600063ffffffff82169050919050565b61237d81612364565b82525050565b600061ffff82169050919050565b61239a81612383565b82525050565b60006080820190506123b56000830187612374565b6123c26020830186612374565b6123cf6040830185612374565b6123dc6060830184612391565b95945050505050565b6123ee81612364565b81146123f957600080fd5b50565b60008135905061240b816123e5565b92915050565b61241a81612383565b811461242557600080fd5b50565b60008135905061243781612411565b92915050565b6000819050919050565b6124508161243d565b811461245b57600080fd5b50565b60008135905061246d81612447565b92915050565b60008060008060008060c087890312156124905761248f611efa565b5b600061249e89828a01612092565b96505060206124af89828a016123fc565b95505060406124c089828a016123fc565b94505060606124d189828a016123fc565b93505060806124e289828a01612428565b92505060a06124f389828a0161245e565b9150509295509295509295565b600080fd5b7f4e487b7100000000000000000000000000000000000000000000000000000000600052604160045260246000fd5b61253d82612005565b810181811067ffffffffffffffff8211171561255c5761255b612505565b5b80604052505050565b600061256f611ef0565b905061257b8282612534565b919050565b600067ffffffffffffffff82111561259b5761259a612505565b5b6125a482612005565b9050602081019050919050565b82818337600083830152505050565b60006125d36125ce84612580565b612565565b9050828152602081018484840111156125ef576125ee612500565b5b6125fa8482856125b1565b509392505050565b600082601f83011261261757612616612219565b5b81356126278482602086016125c0565b91505092915050565b6000806000806080858703121561264a57612649611efa565b5b600061265887828801612147565b945050602061266987828801612147565b935050604061267a87828801612092565b925050606085013567ffffffffffffffff81111561269b5761269a611eff565b5b6126a787828801612602565b91505092959194509250565b6000806000604084860312156126cc576126cb611efa565b5b60006126da86828701612147565b935050602084013567ffffffffffffffff8111156126fb576126fa611eff565b5b61270786828701612228565b92509250509250925092565b6000806040838503121561272a57612729611efa565b5b600061273885828601612147565b925050602061274985828601612147565b9150509250929050565b7f4e487b7100000000000000000000000000000000000000000000000000000000600052602260045260246000fd5b6000600282049050600182168061279a57607f821691505b6020821081036127ad576127ac612753565b5b50919050565b7f4e487b7100000000000000000000000000000000000000000000000000000000600052601160045260246000fd5b60006127ed82612071565b91506127f883612071565b92508282039050818111156128105761280f6127b3565b5b92915050565b600060608201905061282b6000830186612106565b612838602083018561219c565b6128456040830184612106565b949350505050565b600082905092915050565b60008190508160005260206000209050919050565b60006020601f8301049050919050565b600082821b905092915050565b6000600883026128ba7fffffffffffffffffffffffffffffffffffffffffffffffffffffffffffffffff8261287d565b6128c4868361287d565b95508019841693508086168417925050509392505050565b6000819050919050565b60006129016128fc6128f784612071565b6128dc565b612071565b9050919050565b6000819050919050565b61291b836128e6565b61292f61292782612908565b84845461288a565b825550505050565b600090565b612944612937565b61294f818484612912565b505050565b5b818110156129735761296860008261293c565b600181019050612955565b5050565b601f8211156129b85761298981612858565b6129928461286d565b810160208510156129a1578190505b6129b56129ad8561286d565b830182612954565b50505b505050565b600082821c905092915050565b60006129db600019846008026129bd565b1980831691505092915050565b60006129f483836129ca565b9150826002028217905092915050565b612a0e838361284d565b67ffffffffffffffff811115612a2757612a26612505565b5b612a318254612782565b612a3c828285612977565b6000601f831160018114612a6b5760008415612a59578287013590505b612a6385826129e8565b865550612acb565b601f198416612a7986612858565b60005b82811015612aa157848901358255600182019150602085019450602081019050612a7c565b86831015612abe5784890135612aba601f8916826129ca565b8355505b6001600288020188555050505b50505050505050565b7f546f6b656e20646f6573206e6f74206578697374000000000000000000000000600082015250565b6000612b0a601483611fca565b9150612b1582612ad4565b602082019050919050565b60006020820190508181036000830152612b3981612afd565b9050919050565b612b498161243d565b82525050565b600060a082019050612b646000830188612374565b612b716020830187612374565b612b7e6040830186612374565b612b8b6060830185612391565b612b986080830184612b40565b9695505050505050565b600081905092915050565b6000612bb882611fbf565b612bc28185612ba2565b9350612bd2818560208601611fdb565b80840191505092915050565b6000612bea8285612bad565b9150612bf68284612bad565b91508190509392505050565b6000612c0d82612071565b91507fffffffffffffffffffffffffffffffffffffffffffffffffffffffffffffffff8203612c3f57612c3e6127b3565b5b600182019050919050565b6000612c568385611fca565b9350612c638385846125b1565b612c6c83612005565b840190509392505050565b60006020820190508181036000830152612c92818486612c4a565b90509392505050565b600081519050919050565b600082825260208201905092915050565b6000612cc282612c9b565b612ccc8185612ca6565b9350612cdc818560208601611fdb565b612ce581612005565b840191505092915050565b6000608082019050612d056000830187612106565b612d126020830186612106565b612d1f604083018561219c565b8181036060830152612d318184612cb7565b905095945050505050565b600081519050612d4b81611f30565b92915050565b600060208284031215612d6757612d66611efa565b5b6000612d7584828501612d3c565b91505092915050565b7f4e487b7100000000000000000000000000000000000000000000000000000000600052601260045260246000fd5b6000604082019050612dc26000830185612106565b612dcf602083018461219c565b939250505056fea26469706673582212207a53a5244df9a31eac319fdbda9ef7fa1b4376bcc7b8ba6e96070585c32399b964736f6c63430008140033",
  "linkReferences": {},
  "deployedLinkReferences": {}
}