{"contracts/ProvenanceRegistryV2.sol":{"ProvenanceRegistryV2":{"abi":[{"anonymous":false,"inputs":[{"indexed":true,"internalType":"address","name":"nft","type":"address"},{"indexed":true,"internalType":"uint256","name":"tokenId","type":"uint256"},{"indexed":true,"internalType":"address","name":"attester","type":"address"},{"indexed":false,"internalType":"uint8","name":"kind","type":"uint8"},{"indexed":false,"internalType":"bytes32","name":"ref","type":"bytes32"},{"indexed":false,"internalType":"bytes32","name":"payloadHash","type":"bytes32"}],"name":"Attested","type":"event"},{"anonymous":false,"inputs":[{"indexed":true,"internalType":"address","name":"nft","type":"address"},{"indexed":true,"internalType":"uint256","name":"parentId","type":"uint256"},{"indexed":true,"internalType":"uint256","name":"childId","type":"uint256"},{"indexed":false,"internalType":"address","name":"actor","type":"address"},{"indexed":false,"internalType":"bytes32","name":"ref","type":"bytes32"}],"name":"Derived","type":"event"},{"inputs":[],"name":"KIND_LICENSE","outputs":[{"internalType":"uint8","name":"","type":"uint8"}],"stateMutability":"view","type":"function"},{"inputs":[],"name":"KIND_QUALITY","outputs":[{"internalType":"uint8","name":"","type":"uint8"}],"stateMutability":"view","type":"function"},{"inputs":[],"name":"KIND_REVIEW","outputs":[{"internalType":"uint8","name":"","type":"uint8"}],"stateMutability":"view","type":"function"},{"inputs":[],"name":"KIND_SOURCE","outputs":[{"internalType":"uint8","name":"","type":"uint8"}],"stateMutability":"view","type":"function"},{"inputs":[{"internalType":"address","name":"nft","type":"address"},{"internalType":"uint256","name":"tokenId","type":"uint256"},{"internalType":"uint8","name":"kind","type":"uint8"},{"internalType":"bytes32","name":"ref","type":"bytes32"},{"internalType":"bytes32","name":"payloadHash","type":"bytes32"}],"name":"attest","outputs":[],"stateMutability":"nonpayable","type":"function"},{"inputs":[{"internalType":"address","name":"nft","type":"address"},{"internalType":"uint256[]","name":"tokenIds","type":"uint256[]"},{"internalType":"uint8[]","name":"kinds","type":"uint8[]"},{"internalType":"bytes32[]","name":"refs","type":"bytes32[]"},{"internalType":"bytes32[]","name":"payloadHashes","type":"bytes32[]"}],"name":"attestBatch","outputs":[],"stateMutability":"nonpayable","type":"function"},{"inputs":[{"internalType":"address","name":"nft","type":"address"},{"internalType":"uint256","name":"parentId","type":"uint256"},{"internalType":"uint256","name":"childId","type":"uint256"},{"internalType":"bytes32","name":"ref","type":"bytes32"}],"name":"derive","outputs":[],"stateMutability":"nonpayable","type":"function"},{"inputs":[{"internalType":"address","name":"nft","type":"address"},{"internalType":"uint256[]","name":"parentIds","type":"uint256[]"},{"internalType":"uint256[]","name":"childIds","type":"uint256[]"},{"internalType":"bytes32[]","name":"refs","type":"bytes32[]"}],"name":"deriveBatch","outputs":[],"stateMutability":"nonpayable","type":"function"}],"evm":{"bytecode":{"linkReferences":{},"object":"608060405234801561001057600080fd5b50611382806100206000396000f3fe608060405234801561001057600080fd5b50600436106100885760003560e01c8063b310f6d21161005b578063b310f6d214610101578063b4b132421461011d578063cd615d1614610139578063e7b84d071461015757610088565b806338e40eec1461008d5780634691005d146100ab57806394c3c389146100c9578063a32868bc146100e5575b600080fd5b610095610175565b6040516100a29190610a23565b60405180910390f35b6100b361017a565b6040516100c09190610a23565b60405180910390f35b6100e360048036038101906100de9190610b3e565b61017f565b005b6100ff60048036038101906100fa9190610bb9565b610296565b005b61011b60048036038101906101169190610d31565b6103c2565b005b61013760048036038101906101329190610e2d565b6106b0565b005b610141610940565b60405161014e9190610a23565b60405180910390f35b61015f610945565b60405161016c9190610a23565b60405180910390f35b600281565b600181565b610189858561094a565b6101c8576040517f08c379a00000000000000000000000000000000000000000000000000000000081526004016101bf90610f53565b60405180910390fd5b600160ff168360ff16101580156101e65750600460ff168360ff1611155b610225576040517f08c379a000000000000000000000000000000000000000000000000000000000815260040161021c90610fbf565b60405180910390fd5b3373ffffffffffffffffffffffffffffffffffffffff16848673ffffffffffffffffffffffffffffffffffffffff167fa9c8c4722738c59fcc73e8b346e6fcb4851cf6ffe74c7c1e9211f104d6dedb3b86868660405161028793929190610fee565b60405180910390a45050505050565b6102a0848461094a565b6102df576040517f08c379a00000000000000000000000000000000000000000000000000000000081526004016102d690611071565b60405180910390fd5b6102e9848361094a565b610328576040517f08c379a000000000000000000000000000000000000000000000000000000000815260040161031f906110dd565b60405180910390fd5b81830361036a576040517f08c379a000000000000000000000000000000000000000000000000000000000815260040161036190611149565b60405180910390fd5b81838573ffffffffffffffffffffffffffffffffffffffff167f3d0a41f78d928f45f5657b4be7121b33ad983ce0f8ede1c599b93affc6356f4033856040516103b4929190611178565b60405180910390a450505050565b85859050888890501461040a576040517f08c379a0000000000000000000000000000000000000000000000000000000008152600401610401906111ed565b60405180910390fd5b838390508888905014610452576040517f08c379a0000000000000000000000000000000000000000000000000000000008152600401610449906111ed565b60405180910390fd5b81819050888890501461049a576040517f08c379a0000000000000000000000000000000000000000000000000000000008152600401610491906111ed565b60405180910390fd5b60005b888890508110156106a4576104cb8a8a8a848181106104bf576104be61120d565b5b9050602002013561094a565b61050a576040517f08c379a000000000000000000000000000000000000000000000000000000000815260040161050190610f53565b60405180910390fd5b600160ff168787838181106105225761052161120d565b5b9050602002016020810190610537919061123c565b60ff16101580156105765750600460ff1687878381811061055b5761055a61120d565b5b9050602002016020810190610570919061123c565b60ff1611155b6105b5576040517f08c379a00000000000000000000000000000000000000000000000000000000081526004016105ac90610fbf565b60405180910390fd5b3373ffffffffffffffffffffffffffffffffffffffff168989838181106105df576105de61120d565b5b905060200201358b73ffffffffffffffffffffffffffffffffffffffff167fa9c8c4722738c59fcc73e8b346e6fcb4851cf6ffe74c7c1e9211f104d6dedb3b8a8a868181106106315761063061120d565b5b9050602002016020810190610646919061123c565b8989878181106106595761065861120d565b5b905060200201358888888181106106735761067261120d565b5b9050602002013560405161068993929190610fee565b60405180910390a4808061069c90611298565b91505061049d565b50505050505050505050565b8383905086869050146106f8576040517f08c379a00000000000000000000000000000000000000000000000000000000081526004016106ef906111ed565b60405180910390fd5b818190508686905014610740576040517f08c379a0000000000000000000000000000000000000000000000000000000008152600401610737906111ed565b60405180910390fd5b60005b8686905081101561093657610771888888848181106107655761076461120d565b5b9050602002013561094a565b6107b0576040517f08c379a00000000000000000000000000000000000000000000000000000000081526004016107a790611071565b60405180910390fd5b6107d3888686848181106107c7576107c661120d565b5b9050602002013561094a565b610812576040517f08c379a0000000000000000000000000000000000000000000000000000000008152600401610809906110dd565b60405180910390fd5b8484828181106108255761082461120d565b5b9050602002013587878381811061083f5761083e61120d565b5b9050602002013503610886576040517f08c379a000000000000000000000000000000000000000000000000000000000815260040161087d90611149565b60405180910390fd5b8484828181106108995761089861120d565b5b905060200201358787838181106108b3576108b261120d565b5b905060200201358973ffffffffffffffffffffffffffffffffffffffff167f3d0a41f78d928f45f5657b4be7121b33ad983ce0f8ede1c599b93affc6356f40338787878181106109065761090561120d565b5b9050602002013560405161091b929190611178565b60405180910390a4808061092e90611298565b915050610743565b5050505050505050565b600381565b600481565b60008273ffffffffffffffffffffffffffffffffffffffff16636352211e836040518263ffffffff1660e01b815260040161098591906112ef565b602060405180830381865afa9250505080156109bf57506040513d601f19601f820116820180604052508101906109bc919061131f565b60015b6109cc5760009050610a01565b600073ffffffffffffffffffffffffffffffffffffffff168173ffffffffffffffffffffffffffffffffffffffff1614159150505b92915050565b600060ff82169050919050565b610a1d81610a07565b82525050565b6000602082019050610a386000830184610a14565b92915050565b600080fd5b600080fd5b600073ffffffffffffffffffffffffffffffffffffffff82169050919050565b6000610a7382610a48565b9050919050565b610a8381610a68565b8114610a8e57600080fd5b50565b600081359050610aa081610a7a565b92915050565b6000819050919050565b610ab981610aa6565b8114610ac457600080fd5b50565b600081359050610ad681610ab0565b92915050565b610ae581610a07565b8114610af057600080fd5b50565b600081359050610b0281610adc565b92915050565b6000819050919050565b610b1b81610b08565b8114610b2657600080fd5b50565b600081359050610b3881610b12565b92915050565b600080600080600060a08688031215610b5a57610b59610a3e565b5b6000610b6888828901610a91565b9550506020610b7988828901610ac7565b9450506040610b8a88828901610af3565b9350506060610b9b88828901610b29565b9250506080610bac88828901610b29565b9150509295509295909350565b60008060008060808587031215610bd357610bd2610a3e565b5b6000610be187828801610a91565b9450506020610bf287828801610ac7565b9350506040610c0387828801610ac7565b9250506060610c1487828801610b29565b91505092959194509250565b600080fd5b600080fd5b600080fd5b60008083601f840112610c4557610c44610c20565b5b8235905067ffffffffffffffff811115610c6257610c61610c25565b5b602083019150836020820283011115610c7e57610c7d610c2a565b5b9250929050565b60008083601f840112610c9b57610c9a610c20565b5b8235905067ffffffffffffffff811115610cb857610cb7610c25565b5b602083019150836020820283011115610cd457610cd3610c2a565b5b9250929050565b60008083601f840112610cf157610cf0610c20565b5b8235905067ffffffffffffffff811115610d0e57610d0d610c25565b5b602083019150836020820283011115610d2a57610d29610c2a565b5b9250929050565b600080600080600080600080600060a08a8c031215610d5357610d52610a3e565b5b6000610d618c828d01610a91565b99505060208a013567ffffffffffffffff811115610d8257610d81610a43565b5b610d8e8c828d01610c2f565b985098505060408a013567ffffffffffffffff811115610db157610db0610a43565b5b610dbd8c828d01610c85565b965096505060608a013567ffffffffffffffff811115610de057610ddf610a43565b5b610dec8c828d01610cdb565b945094505060808a013567ffffffffffffffff811115610e0f57610e0e610a43565b5b610e1b8c828d01610cdb565b92509250509295985092959850929598565b60008060008060008060006080888a031215610e4c57610e4b610a3e565b5b6000610e5a8a828b01610a91565b975050602088013567ffffffffffffffff811115610e7b57610e7a610a43565b5b610e878a828b01610c2f565b9650965050604088013567ffffffffffffffff811115610eaa57610ea9610a43565b5b610eb68a828b01610c2f565b9450945050606088013567ffffffffffffffff811115610ed957610ed8610a43565b5b610ee58a828b01610cdb565b925092505092959891949750929550565b600082825260208201905092915050565b7f546f6b656e20646f6573206e6f74206578697374000000000000000000000000600082015250565b6000610f3d601483610ef6565b9150610f4882610f07565b602082019050919050565b60006020820190508181036000830152610f6c81610f30565b9050919050565b7f496e76616c6964206174746573746174696f6e206b696e640000000000000000600082015250565b6000610fa9601883610ef6565b9150610fb482610f73565b602082019050919050565b60006020820190508181036000830152610fd881610f9c565b9050919050565b610fe881610b08565b82525050565b60006060820190506110036000830186610a14565b6110106020830185610fdf565b61101d6040830184610fdf565b949350505050565b7f506172656e7420746f6b656e20646f6573206e6f742065786973740000000000600082015250565b600061105b601b83610ef6565b915061106682611025565b602082019050919050565b6000602082019050818103600083015261108a8161104e565b9050919050565b7f4368696c6420746f6b656e20646f6573206e6f74206578697374000000000000600082015250565b60006110c7601a83610ef6565b91506110d282611091565b602082019050919050565b600060208201905081810360008301526110f6816110ba565b9050919050565b7f43616e6e6f74206465726976652066726f6d2073656c66000000000000000000600082015250565b6000611133601783610ef6565b915061113e826110fd565b602082019050919050565b6000602082019050818103600083015261116281611126565b9050919050565b61117281610a68565b82525050565b600060408201905061118d6000830185611169565b61119a6020830184610fdf565b9392505050565b7f417272617973206c656e677468206d69736d6174636800000000000000000000600082015250565b60006111d7601683610ef6565b91506111e2826111a1565b602082019050919050565b60006020820190508181036000830152611206816111ca565b9050919050565b7f4e487b7100000000000000000000000000000000000000000000000000000000600052603260045260246000fd5b60006020828403121561125257611251610a3e565b5b600061126084828501610af3565b91505092915050565b7f4e487b7100000000000000000000000000000000000000000000000000000000600052601160045260246000fd5b60006112a382610aa6565b91507fffffffffffffffffffffffffffffffffffffffffffffffffffffffffffffffff82036112d5576112d4611269565b5b600182019050919050565b6112e981610aa6565b82525050565b600060208201905061130460008301846112e0565b92915050565b60008151905061131981610a7a565b92915050565b60006020828403121561133557611334610a3e565b5b60006113438482850161130a565b9150509291505056fea264697066735822122078a8454b256132a07a77fda2c5f62ebfed4de14773f8f6a1645a29541b67d05964736f6c63430008140033","opcodes":"PUSH1 0x80 PUSH1 0x40 MSTORE CALLVALUE DUP1 ISZERO PUSH2 0x10 JUMPI PUSH1 0x0 DUP1 REVERT JUMPDEST POP PUSH2 0x1382 DUP1 PUSH2 0x20 PUSH1 0x0 CODECOPY PUSH1 0x0 RETURN INVALID PUSH1 0x80 PUSH1 0x40 MSTORE CALLVALUE DUP1 ISZERO PUSH2 0x10 JUMPI PUSH1 0x0 DUP1 REVERT JUMPDEST POP PUSH1 0x4 CALLDATASIZE LT PUSH2 0x88 JUMPI PUSH1 0x0 CALLDATALOAD PUSH1 0xE0 SHR DUP1 PUSH4 0xB310F6D2 GT PUSH2 0x5B JUMPI DUP1 PUSH4 0xB310F6D2 EQ PUSH2 0x101 JUMPI DUP1 PUSH4 0xB4B13242 EQ PUSH2 0x11D JUMPI DUP1 PUSH4 0xCD615D16 EQ PUSH2 0x139 JUMPI DUP1 PUSH4 0xE7B84D07 EQ PUSH2 0x157 JUMPI PUSH2 0x88 JUMP JUMPDEST DUP1 PUSH4 0x38E40EEC EQ PUSH2 0x8D JUMPI DUP1 PUSH4 0x4691005D EQ PUSH2 0xAB JUMPI DUP1 PUSH4 0x94C3C389 EQ PUSH2 0xC9 JUMPI DUP1 PUSH4 0xA32868BC EQ PUSH2 0xE5 JUMPI JUMPDEST PUSH1 0x0 DUP1 REVERT JUMPDEST PUSH2 0x95 PUSH2 0x175 JUMP JUMPDEST PUSH1 0x40 MLOAD PUSH2 0xA2 SWAP2 SWAP1 PUSH2 0xA23 JUMP JUMPDEST PUSH1 0x40 MLOAD DUP1 SWAP2 SUB SWAP1 RETURN JUMPDEST PUSH2 0xB3 PUSH2 0x17A JUMP JUMPDEST PUSH1 0x40 MLOAD PUSH2 0xC0 SWAP2 SWAP1 PUSH2 0xA23 JUMP JUMPDEST PUSH1 0x40 MLOAD DUP1 SWAP2 SUB SWAP1 RETURN JUMPDEST PUSH2 0xE3 PUSH1 0x4 DUP1 CALLDATASIZE SUB DUP2 ADD SWAP1 PUSH2 0xDE SWAP2 SWAP1 PUSH2 0xB3E JUMP JUMPDEST PUSH2 0x17F JUMP JUMPDEST STOP JUMPDEST PUSH2 0xFF PUSH1 0x4 DUP1 CALLDATASIZE SUB DUP2 ADD SWAP1 PUSH2 0xFA SWAP2 SWAP1 PUSH2 0xBB9 JUMP JUMPDEST PUSH2 0x296 JUMP JUMPDEST STOP JUMPDEST PUSH2 0x11B PUSH1 0x4 DUP1 CALLDATASIZE SUB DUP2 ADD SWAP1 PUSH2 0x116 SWAP2 SWAP1 PUSH2 0xD31 JUMP JUMPDEST PUSH2 0x3C2 JUMP JUMPDEST STOP JUMPDEST PUSH2 0x137 PUSH1 0x4 DUP1 CALLDATASIZE SUB DUP2 ADD SWAP1 PUSH2 0x132 SWAP2 SWAP1 PUSH2 0xE2D JUMP JUMPDEST PUSH2 0x6B0 JUMP JUMPDEST STOP JUMPDEST PUSH2 0x141 PUSH2 0x940 JUMP JUMPDEST PUSH1 0x40 MLOAD PUSH2 0x14E SWAP2 SWAP1 PUSH2 0xA23 JUMP JUMPDEST PUSH1 0x40 MLOAD DUP1 SWAP2 SUB SWAP1 RETURN JUMPDEST PUSH2 0x15F PUSH2 0x945 JUMP JUMPDEST PUSH1 0x40 MLOAD PUSH2 0x16C SWAP2 SWAP1 PUSH2 0xA23 JUMP JUMPDEST PUSH1 0x40 MLOAD DUP1 SWAP2 SUB SWAP1 RETURN JUMPDEST PUSH1 0x2 DUP2 JUMP JUMPDEST PUSH1 0x1 DUP2 JUMP JUMPDEST PUSH2 0x189 DUP6 DUP6 PUSH2 0x94A JUMP JUMPDEST PUSH2 0x1C8 JUMPI PUSH1 0x40 MLOAD PUSH32 0x8C379A000000000000000000000000000000000000000000000000000000000 DUP2 MSTORE PUSH1 0x4 ADD PUSH2 0x1BF SWAP1 PUSH2 0xF53 JUMP JUMPDEST PUSH1 0x40 MLOAD DUP1 SWAP2 SUB SWAP1 REVERT JUMPDEST PUSH1 0x1 PUSH1 0xFF AND DUP4 PUSH1 0xFF AND LT ISZERO DUP1 ISZERO PUSH2 0x1E6 JUMPI POP PUSH1 0x4 PUSH1 0xFF AND DUP4 PUSH1 0xFF AND GT ISZERO JUMPDEST PUSH2 0x225 JUMPI PUSH1 0x40 MLOAD PUSH32 0x8C379A000000000000000000000000000000000000000000000000000000000 DUP2 MSTORE PUSH1 0x4 ADD PUSH2 0x21C SWAP1 PUSH2 0xFBF JUMP JUMPDEST PUSH1 0x40 MLOAD DUP1 SWAP2 SUB SWAP1 REVERT JUMPDEST CALLER PUSH20 0xFFFFFFFFFFFFFFFFFFFFFFFFFFFFFFFFFFFFFFFF AND DUP5 DUP7 PUSH20 0xFFFFFFFFFFFFFFFFFFFFFFFFFFFFFFFFFFFFFFFF AND PUSH32 0xA9C8C4722738C59FCC73E8B346E6FCB4851CF6FFE74C7C1E9211F104D6DEDB3B DUP7 DUP7 DUP7 PUSH1 0x40 MLOAD PUSH2 0x287 SWAP4 SWAP3 SWAP2 SWAP1 PUSH2 0xFEE JUMP JUMPDEST PUSH1 0x40 MLOAD DUP1 SWAP2 SUB SWAP1 LOG4 POP POP POP POP POP JUMP JUMPDEST PUSH2 0x2A0 DUP5 DUP5 PUSH2 0x94A JUMP JUMPDEST PUSH2 0x2DF JUMPI PUSH1 0x40 MLOAD PUSH32 0x8C379A000000000000000000000000000000000000000000000000000000000 DUP2 MSTORE PUSH1 0x4 ADD PUSH2 0x2D6 SWAP1 PUSH2 0x1071 JUMP JUMPDEST PUSH1 0x40 MLOAD DUP1 SWAP2 SUB SWAP1 REVERT JUMPDEST PUSH2 0x2E9 DUP5 DUP4 PUSH2 0x94A JUMP JUMPDEST PUSH2 0x328 JUMPI PUSH1 0x40 MLOAD PUSH32 0x8C379A000000000000000000000000000000000000000000000000000000000 DUP2 MSTORE PUSH1 0x4 ADD PUSH2 0x31F SWAP1 PUSH2 0x10DD JUMP JUMPDEST PUSH1 0x40 MLOAD DUP1 SWAP2 SUB SWAP1 REVERT JUMPDEST DUP2 DUP4 SUB PUSH2 0x36A JUMPI PUSH1 0x40 MLOAD PUSH32 0x8C379A000000000000000000000000000000000000000000000000000000000 DUP2 MSTORE PUSH1 0x4 ADD PUSH2 0x361 SWAP1 PUSH2 0x1149 JUMP JUMPDEST PUSH1 0x40 MLOAD DUP1 SWAP2 SUB SWAP1 REVERT JUMPDEST DUP2 DUP4 DUP6 PUSH20 0xFFFFFFFFFFFFFFFFFFFFFFFFFFFFFFFFFFFFFFFF AND PUSH32 0x3D0A41F78D928F45F5657B4BE7121B33AD983CE0F8EDE1C599B93AFFC6356F40 CALLER DUP6 PUSH1 0x40 MLOAD PUSH2 0x3B4 SWAP3 SWAP2 SWAP1 PUSH2 0x1178 JUMP JUMPDEST PUSH1 0x40 MLOAD DUP1 SWAP2 SUB SWAP1 LOG4 POP POP POP POP JUMP JUMPDEST DUP6 DUP6 SWAP1 POP DUP9 DUP9 SWAP1 POP EQ PUSH2 0x40A JUMPI PUSH1 0x40 MLOAD PUSH32 0x8C379A000000000000000000000000000000000000000000000000000000000 DUP2 MSTORE PUSH1 0x4 ADD PUSH2 0x401 SWAP1 PUSH2 0x11ED JUMP JUMPDEST PUSH1 0x40 MLOAD DUP1 SWAP2 SUB SWAP1 REVERT JUMPDEST DUP4 DUP4 SWAP1 POP DUP9 DUP9 SWAP1 POP EQ PUSH2 0x452 JUMPI PUSH1 0x40 MLOAD PUSH32 0x8C379A000000000000000000000000000000000000000000000000000000000 DUP2 MSTORE PUSH1 0x4 ADD PUSH2 0x449 SWAP1 PUSH2 0x11ED JUMP JUMPDEST PUSH1 0x40 MLOAD DUP1 SWAP2 SUB SWAP1 REVERT JUMPDEST DUP2 DUP2 SWAP1 POP DUP9 DUP9 SWAP1 POP EQ PUSH2 0x49A JUMPI PUSH1 0x40 MLOAD PUSH32 0x8C379A000000000000000000000000000000000000000000000000000000000 DUP2 MSTORE PUSH1 0x4 ADD PUSH2 0x491 SWAP1 PUSH2 0x11ED JUMP JUMPDEST PUSH1 0x40 MLOAD DUP1 SWAP2 SUB SWAP1 REVERT JUMPDEST PUSH1 0x0 JUMPDEST DUP9 DUP9 SWAP1 POP DUP2 LT ISZERO PUSH2 0x6A4 JUMPI PUSH2 0x4CB DUP11 DUP11 DUP11 DUP5 DUP2 DUP2 LT PUSH2 0x4BF JUMPI PUSH2 0x4BE PUSH2 0x120D JUMP JUMPDEST JUMPDEST SWAP1 POP PUSH1 0x20 MUL ADD CALLDATALOAD PUSH2 0x94A JUMP JUMPDEST PUSH2 0x50A JUMPI PUSH1 0x40 MLOAD PUSH32 0x8C379A000000000000000000000000000000000000000000000000000000000 DUP2 MSTORE PUSH1 0x4 ADD PUSH2 0x501 SWAP1 PUSH2 0xF53 JUMP JUMPDEST PUSH1 0x40 MLOAD DUP1 SWAP2 SUB SWAP1 REVERT JUMPDEST PUSH1 0x1 PUSH1 0xFF AND DUP8 DUP8 DUP4 DUP2 DUP2 LT PUSH2 0x522 JUMPI PUSH2 0x521 PUSH2 0x120D JUMP JUMPDEST JUMPDEST SWAP1 POP PUSH1 0x20 MUL ADD PUSH1 0x20 DUP2 ADD SWAP1 PUSH2 0x537 SWAP2 SWAP1 PUSH2 0x123C JUMP JUMPDEST PUSH1 0xFF AND LT ISZERO DUP1 ISZERO PUSH2 0x576 JUMPI POP PUSH1 0x4 PUSH1 0xFF AND DUP8 DUP8 DUP4 DUP2 DUP2 LT PUSH2 0x55B JUMPI PUSH2 0x55A PUSH2 0x120D JUMP JUMPDEST JUMPDEST SWAP1 POP PUSH1 0x20 MUL ADD PUSH1 0x20 DUP2 ADD SWAP1 PUSH2 0x570 SWAP2 SWAP1 PUSH2 0x123C JUMP JUMPDEST PUSH1 0xFF AND GT ISZERO JUMPDEST PUSH2 0x5B5 JUMPI PUSH1 0x40 MLOAD PUSH32 0x8C379A000000000000000000000000000000000000000000000000000000000 DUP2 MSTORE PUSH1 0x4 ADD PUSH2 0x5AC SWAP1 PUSH2 0xFBF JUMP JUMPDEST PUSH1 0x40 MLOAD DUP1 SWAP2 SUB SWAP1 REVERT JUMPDEST CALLER PUSH20 0xFFFFFFFFFFFFFFFFFFFFFFFFFFFFFFFFFFFFFFFF AND DUP10 DUP10 DUP4 DUP2 DUP2 LT PUSH2 0x5DF JUMPI PUSH2 0x5DE PUSH2 0x120D JUMP JUMPDEST JUMPDEST SWAP1 POP PUSH1 0x20 MUL ADD CALLDATALOAD DUP12 PUSH20 0xFFFFFFFFFFFFFFFFFFFFFFFFFFFFFFFFFFFFFFFF AND PUSH32 0xA9C8C4722738C59FCC73E8B346E6FCB4851CF6FFE74C7C1E9211F104D6DEDB3B DUP11 DUP11 DUP7 DUP2 DUP2 LT PUSH2 0x631 JUMPI PUSH2 0x630 PUSH2 0x120D JUMP JUMPDEST JUMPDEST SWAP1 POP PUSH1 0x20 MUL ADD PUSH1 0x20 DUP2 ADD SWAP1 PUSH2 0x646 SWAP2 SWAP1 PUSH2 0x123C JUMP JUMPDEST DUP10 DUP10 DUP8 DUP2 DUP2 LT PUSH2 0x659 JUMPI PUSH2 0x658 PUSH2 0x120D JUMP JUMPDEST JUMPDEST SWAP1 POP PUSH1 0x20 MUL ADD CALLDATALOAD DUP9 DUP9 DUP9 DUP2 DUP2 LT PUSH2 0x673 JUMPI PUSH2 0x672 PUSH2 0x120D JUMP JUMPDEST JUMPDEST SWAP1 POP PUSH1 0x20 MUL ADD CALLDATALOAD PUSH1 0x40 MLOAD PUSH2 0x689 SWAP4 SWAP3 SWAP2 SWAP1 PUSH2 0xFEE JUMP JUMPDEST PUSH1 0x40 MLOAD DUP1 SWAP2 SUB SWAP1 LOG4 DUP1 DUP1 PUSH2 0x69C SWAP1 PUSH2 0x1298 JUMP JUMPDEST SWAP2 POP POP PUSH2 0x49D JUMP JUMPDEST POP POP POP POP POP POP POP POP POP POP JUMP JUMPDEST DUP4 DUP4 SWAP1 POP DUP7 DUP7 SWAP1 POP EQ PUSH2 0x6F8 JUMPI PUSH1 0x40 MLOAD PUSH32 0x8C379A000000000000000000000000000000000000000000000000000000000 DUP2 MSTORE PUSH1 0x4 ADD PUSH2 0x6EF SWAP1 PUSH2 0x11ED JUMP JUMPDEST PUSH1 0x40 MLOAD DUP1 SWAP2 SUB SWAP1 REVERT JUMPDEST DUP2 DUP2 SWAP1 POP DUP7 DUP7 SWAP1 POP EQ PUSH2 0x740 JUMPI PUSH1 0x40 MLOAD PUSH32 0x8C379A000000000000000000000000000000000000000000000000000000000 DUP2 MSTORE PUSH1 0x4 ADD PUSH2 0x737 SWAP1 PUSH2 0x11ED JUMP JUMPDEST PUSH1 0x40 MLOAD DUP1 SWAP2 SUB SWAP1 REVERT JUMPDEST PUSH1 0x0 JUMPDEST DUP7 DUP7 SWAP1 POP DUP2 LT ISZERO PUSH2 0x936 JUMPI PUSH2 0x771 DUP9 DUP9 DUP9 DUP5 DUP2 DUP2 LT PUSH2 0x765 JUMPI PUSH2 0x764 PUSH2 0x120D JUMP JUMPDEST JUMPDEST SWAP1 POP PUSH1 0x20 MUL ADD CALLDATALOAD PUSH2 0x94A JUMP JUMPDEST PUSH2 0x7B0 JUMPI PUSH1 0x40 MLOAD PUSH32 0x8C379A000000000000000000000000000000000000000000000000000000000 DUP2 MSTORE PUSH1 0x4 ADD PUSH2 0x7A7 SWAP1 PUSH2 0x1071 JUMP JUMPDEST PUSH1 0x40 MLOAD DUP1 SWAP2 SUB SWAP1 REVERT JUMPDEST PUSH2 0x7D3 DUP9 DUP7 DUP7 DUP5 DUP2 DUP2 LT PUSH2 0x7C7 JUMPI PUSH2 0x7C6 PUSH2 0x120D JUMP JUMPDEST JUMPDEST SWAP1 POP PUSH1 0x20 MUL ADD CALLDATALOAD PUSH2 0x94A JUMP JUMPDEST PUSH2 0x812 JUMPI PUSH1 0x40 MLOAD PUSH32 0x8C379A000000000000000000000000000000000000000000000000000000000 DUP2 MSTORE PUSH1 0x4 ADD PUSH2 0x809 SWAP1 PUSH2 0x10DD JUMP JUMPDEST PUSH1 0x40 MLOAD DUP1 SWAP2 SUB SWAP1 REVERT JUMPDEST DUP5 DUP5 DUP3 DUP2 DUP2 LT PUSH2 0x825 JUMPI PUSH2 0x824 PUSH2 0x120D JUMP JUMPDEST JUMPDEST SWAP1 POP PUSH1 0x20 MUL ADD CALLDATALOAD DUP8 DUP8 DUP4 DUP2 DUP2 LT PUSH2 0x83F JUMPI PUSH2 0x83E PUSH2 0x120D JUMP JUMPDEST JUMPDEST SWAP1 POP PUSH1 0x20 MUL ADD CALLDATALOAD SUB PUSH2 0x886 JUMPI PUSH1 0x40 MLOAD PUSH32 0x8C379A000000000000000000000000000000000000000000000000000000000 DUP2 MSTORE PUSH1 0x4 ADD PUSH2 0x87D SWAP1 PUSH2 0x1149 JUMP JUMPDEST PUSH1 0x40 MLOAD DUP1 SWAP2 SUB SWAP1 REVERT JUMPDEST DUP5 DUP5 DUP3 DUP2 DUP2 LT PUSH2 0x899 JUMPI PUSH2 0x898 PUSH2 0x120D JUMP JUMPDEST JUMPDEST SWAP1 POP PUSH1 0x20 MUL ADD CALLDATALOAD DUP8 DUP8 DUP4 DUP2 DUP2 LT PUSH2 0x8B3 JUMPI PUSH2 0x8B2 PUSH2 0x120D JUMP JUMPDEST JUMPDEST SWAP1 POP PUSH1 0x20 MUL ADD CALLDATALOAD DUP10 PUSH20 0xFFFFFFFFFFFFFFFFFFFFFFFFFFFFFFFFFFFFFFFF AND PUSH32 0x3D0A41F78D928F45F5657B4BE7121B33AD983CE0F8EDE1C599B93AFFC6356F40 CALLER DUP8 DUP8 DUP8 DUP2 DUP2 LT PUSH2 0x906 JUMPI PUSH2 0x905 PUSH2 0x120D JUMP JUMPDEST JUMPDEST SWAP1 POP PUSH1 0x20 MUL ADD CALLDATALOAD PUSH1 0x40 MLOAD PUSH2 0x91B SWAP3 SWAP2 SWAP1 PUSH2 0x1178 JUMP JUMPDEST PUSH1 0x40 MLOAD DUP1 SWAP2 SUB SWAP1 LOG4 DUP1 DUP1 PUSH2 0x92E SWAP1 PUSH2 0x1298 JUMP JUMPDEST SWAP2 POP POP PUSH2 0x743 JUMP JUMPDEST POP POP POP POP POP POP POP POP JUMP JUMPDEST PUSH1 0x3 DUP2 JUMP JUMPDEST PUSH1 0x4 DUP2 JUMP JUMPDEST PUSH1 0x0 DUP3 PUSH20 0xFFFFFFFFFFFFFFFFFFFFFFFFFFFFFFFFFFFFFFFF AND PUSH4 0x6352211E DUP4 PUSH1 0x40 MLOAD DUP3 PUSH4 0xFFFFFFFF AND PUSH1 0xE0 SHL DUP2 MSTORE PUSH1 0x4 ADD PUSH2 0x985 SWAP2 SWAP1 PUSH2 0x12EF JUMP JUMPDEST PUSH1 0x20 PUSH1 0x40 MLOAD DUP1 DUP4 SUB DUP2 DUP7 GAS STATICCALL SWAP3 POP POP POP DUP1 ISZERO PUSH2 0x9BF JUMPI POP PUSH1 0x40 MLOAD RETURNDATASIZE PUSH1 0x1F NOT PUSH1 0x1F DUP3 ADD AND DUP3 ADD DUP1 PUSH1 0x40 MSTORE POP DUP2 ADD SWAP1 PUSH2 0x9BC SWAP2 SWAP1 PUSH2 0x131F JUMP JUMPDEST PUSH1 0x1 JUMPDEST PUSH2 0x9CC JUMPI PUSH1 0x0 SWAP1 POP PUSH2 0xA01 JUMP JUMPDEST PUSH1 0x0 PUSH20 0xFFFFFFFFFFFFFFFFFFFFFFFFFFFFFFFFFFFFFFFF AND DUP2 PUSH20 0xFFFFFFFFFFFFFFFFFFFFFFFFFFFFFFFFFFFFFFFF AND EQ ISZERO SWAP2 POP POP JUMPDEST SWAP3 SWAP2 POP POP JUMP JUMPDEST PUSH1 0x0 PUSH1 0xFF DUP3 AND SWAP1 POP SWAP2 SWAP1 POP JUMP JUMPDEST PUSH2 0xA1D DUP2 PUSH2 0xA07 JUMP JUMPDEST DUP3 MSTORE POP POP JUMP JUMPDEST PUSH1 0x0 PUSH1 0x20 DUP3 ADD SWAP1 POP PUSH2 0xA38 PUSH1 0x0 DUP4 ADD DUP5 PUSH2 0xA14 JUMP JUMPDEST SWAP3 SWAP2 POP POP JUMP JUMPDEST PUSH1 0x0 DUP1 REVERT JUMPDEST PUSH1 0x0 DUP1 REVERT JUMPDEST PUSH1 0x0 PUSH20 0xFFFFFFFFFFFFFFFFFFFFFFFFFFFFFFFFFFFFFFFF DUP3 AND SWAP1 POP SWAP2 SWAP1 POP JUMP JUMPDEST PUSH1 0x0 PUSH2 0xA73 DUP3 PUSH2 0xA48 JUMP JUMPDEST SWAP1 POP SWAP2 SWAP1 POP JUMP JUMPDEST PUSH2 0xA83 DUP2 PUSH2 0xA68 JUMP JUMPDEST DUP2 EQ PUSH2 0xA8E JUMPI PUSH1 0x0 DUP1 REVERT JUMPDEST POP JUMP JUMPDEST PUSH1 0x0 DUP2 CALLDATALOAD SWAP1 POP PUSH2 0xAA0 DUP2 PUSH2 0xA7A JUMP JUMPDEST SWAP3 SWAP2 POP POP JUMP JUMPDEST PUSH1 0x0 DUP2 SWAP1 POP SWAP2 SWAP1 POP JUMP JUMPDEST PUSH2 0xAB9 DUP2 PUSH2 0xAA6 JUMP JUMPDEST DUP2 EQ PUSH2 0xAC4 JUMPI PUSH1 0x0 DUP1 REVERT JUMPDEST POP JUMP JUMPDEST PUSH1 0x0 DUP2 CALLDATALOAD SWAP1 POP PUSH2 0xAD6 DUP2 PUSH2 0xAB0 JUMP JUMPDEST SWAP3 SWAP2 POP POP JUMP JUMPDEST PUSH2 0xAE5 DUP2 PUSH2 0xA07 JUMP JUMPDEST DUP2 EQ PUSH2 0xAF0 JUMPI PUSH1 0x0 DUP1 REVERT JUMPDEST POP JUMP JUMPDEST PUSH1 0x0 DUP2 CALLDATALOAD SWAP1 POP PUSH2 0xB02 DUP2 PUSH2 0xADC JUMP JUMPDEST SWAP3 SWAP2 POP POP JUMP JUMPDEST PUSH1 0x0 DUP2 SWAP1 POP SWAP2 SWAP1 POP JUMP JUMPDEST PUSH2 0xB1B DUP2 PUSH2 0xB08 JUMP JUMPDEST DUP2 EQ PUSH2 0xB26 JUMPI PUSH1 0x0 DUP1 REVERT JUMPDEST POP JUMP JUMPDEST PUSH1 0x0 DUP2 CALLDATALOAD SWAP1 POP PUSH2 0xB38 DUP2 PUSH2 0xB12 JUMP JUMPDEST SWAP3 SWAP2 POP POP JUMP JUMPDEST PUSH1 0x0 DUP1 PUSH1 0x0 DUP1 PUSH1 0x0 PUSH1 0xA0 DUP7 DUP9 SUB SLT ISZERO PUSH2 0xB5A JUMPI PUSH2 0xB59 PUSH2 0xA3E JUMP JUMPDEST JUMPDEST PUSH1 0x0 PUSH2 0xB68 DUP9 DUP3 DUP10 ADD PUSH2 0xA91 JUMP JUMPDEST SWAP6 POP POP PUSH1 0x20 PUSH2 0xB79 DUP9 DUP3 DUP10 ADD PUSH2 0xAC7 JUMP JUMPDEST SWAP5 POP POP PUSH1 0x40 PUSH2 0xB8A DUP9 DUP3 DUP10 ADD PUSH2 0xAF3 JUMP JUMPDEST SWAP4 POP POP PUSH1 0x60 PUSH2 0xB9B DUP9 DUP3 DUP10 ADD PUSH2 0xB29 JUMP JUMPDEST SWAP3 POP POP PUSH1 0x80 PUSH2 0xBAC DUP9 DUP3 DUP10 ADD PUSH2 0xB29 JUMP JUMPDEST SWAP2 POP POP SWAP3 SWAP6 POP SWAP3 SWAP6 SWAP1 SWAP4 POP JUMP JUMPDEST PUSH1 0x0 DUP1 PUSH1 0x0 DUP1 PUSH1 0x80 DUP6 DUP8 SUB SLT ISZERO PUSH2 0xBD3 JUMPI PUSH2 0xBD2 PUSH2 0xA3E JUMP JUMPDEST JUMPDEST PUSH1 0x0 PUSH2 0xBE1 DUP8 DUP3 DUP9 ADD PUSH2 0xA91 JUMP JUMPDEST SWAP5 POP POP PUSH1 0x20 PUSH2 0xBF2 DUP8 DUP3 DUP9 ADD PUSH2 0xAC7 JUMP JUMPDEST SWAP4 POP POP PUSH1 0x40 PUSH2 0xC03 DUP8 DUP3 DUP9 ADD PUSH2 0xAC7 JUMP JUMPDEST SWAP3 POP POP PUSH1 0x60 PUSH2 0xC14 DUP8 DUP3 DUP9 ADD PUSH2 0xB29 JUMP JUMPDEST SWAP2 POP POP SWAP3 SWAP6 SWAP2 SWAP5 POP SWAP3 POP JUMP JUMPDEST PUSH1 0x0 DUP1 REVERT JUMPDEST PUSH1 0x0 DUP1 REVERT JUMPDEST PUSH1 0x0 DUP1 REVERT JUMPDEST PUSH1 0x0 DUP1 DUP4 PUSH1 0x1F DUP5 ADD SLT PUSH2 0xC45 JUMPI PUSH2 0xC44 PUSH2 0xC20 JUMP JUMPDEST JUMPDEST DUP3 CALLDATALOAD SWAP1 POP PUSH8 0xFFFFFFFFFFFFFFFF DUP2 GT ISZERO PUSH2 0xC62 JUMPI PUSH2 0xC61 PUSH2 0xC25 JUMP JUMPDEST JUMPDEST PUSH1 0x20 DUP4 ADD SWAP2 POP DUP4 PUSH1 0x20 DUP3 MUL DUP4 ADD GT ISZERO PUSH2 0xC7E JUMPI PUSH2 0xC7D PUSH2 0xC2A JUMP JUMPDEST JUMPDEST SWAP3 POP SWAP3 SWAP1 POP JUMP JUMPDEST PUSH1 0x0 DUP1 DUP4 PUSH1 0x1F DUP5 ADD SLT PUSH2 0xC9B JUMPI PUSH2 0xC9A PUSH2 0xC20 JUMP JUMPDEST JUMPDEST DUP3 CALLDATALOAD SWAP1 POP PUSH8 0xFFFFFFFFFFFFFFFF DUP2 GT ISZERO PUSH2 0xCB8 JUMPI PUSH2 0xCB7 PUSH2 0xC25 JUMP JUMPDEST JUMPDEST PUSH1 0x20 DUP4 ADD SWAP2 POP DUP4 PUSH1 0x20 DUP3 MUL DUP4 ADD GT ISZERO PUSH2 0xCD4 JUMPI PUSH2 0xCD3 PUSH2 0xC2A JUMP JUMPDEST JUMPDEST SWAP3 POP SWAP3 SWAP1 POP JUMP JUMPDEST PUSH1 0x0 DUP1 DUP4 PUSH1 0x1F DUP5 ADD SLT PUSH2 0xCF1 JUMPI PUSH2 0xCF0 PUSH2 0xC20 JUMP JUMPDEST JUMPDEST DUP3 CALLDATALOAD SWAP1 POP PUSH8 0xFFFFFFFFFFFFFFFF DUP2 GT ISZERO PUSH2 0xD0E JUMPI PUSH2 0xD0D PUSH2 0xC25 JUMP JUMPDEST JUMPDEST PUSH1 0x20 DUP4 ADD SWAP2 POP DUP4 PUSH1 0x20 DUP3 MUL DUP4 ADD GT ISZERO PUSH2 0xD2A JUMPI PUSH2 0xD29 PUSH2 0xC2A JUMP JUMPDEST JUMPDEST SWAP3 POP SWAP3 SWAP1 POP JUMP JUMPDEST PUSH1 0x0 DUP1 PUSH1 0x0 DUP1 PUSH1 0x0 DUP1 PUSH1 0x0 DUP1 PUSH1 0x0 PUSH1 0xA0 DUP11 DUP13 SUB SLT ISZERO PUSH2 0xD53 JUMPI PUSH2 0xD52 PUSH2 0xA3E JUMP JUMPDEST JUMPDEST PUSH1 0x0 PUSH2 0xD61 DUP13 DUP3 DUP14 ADD PUSH2 0xA91 JUMP JUMPDEST SWAP10 POP POP PUSH1 0x20 DUP11 ADD CALLDATALOAD PUSH8 0xFFFFFFFFFFFFFFFF DUP2 GT ISZERO PUSH2 0xD82 JUMPI PUSH2 0xD81 PUSH2 0xA43 JUMP JUMPDEST JUMPDEST PUSH2 0xD8E DUP13 DUP3 DUP14 ADD PUSH2 0xC2F JUMP JUMPDEST SWAP9 POP SWAP9 POP POP PUSH1 0x40 DUP11 ADD CALLDATALOAD PUSH8 0xFFFFFFFFFFFFFFFF DUP2 GT ISZERO PUSH2 0xDB1 JUMPI PUSH2 0xDB0 PUSH2 0xA43 JUMP JUMPDEST JUMPDEST PUSH2 0xDBD DUP13 DUP3 DUP14 ADD PUSH2 0xC85 JUMP JUMPDEST SWAP7 POP SWAP7 POP POP PUSH1 0x60 DUP11 ADD CALLDATALOAD PUSH8 0xFFFFFFFFFFFFFFFF DUP2 GT ISZERO PUSH2 0xDE0 JUMPI PUSH2 0xDDF PUSH2 0xA43 JUMP JUMPDEST JUMPDEST PUSH2 0xDEC DUP13 DUP3 DUP14 ADD PUSH2 0xCDB JUMP JUMPDEST SWAP5 POP SWAP5 POP POP PUSH1 0x80 DUP11 ADD CALLDATALOAD PUSH8 0xFFFFFFFFFFFFFFFF DUP2 GT ISZERO PUSH2 0xE0F JUMPI PUSH2 0xE0E PUSH2 0xA43 JUMP JUMPDEST JUMPDEST PUSH2 0xE1B DUP13 DUP3 DUP14 ADD PUSH2 0xCDB JUMP JUMPDEST SWAP3 POP SWAP3 POP POP SWAP3 SWAP6 SWAP9 POP SWAP3 SWAP6 SWAP9 POP SWAP3 SWAP6 SWAP9 JUMP JUMPDEST PUSH1 0x0 DUP1 PUSH1 0x0 DUP1 PUSH1 0x0 DUP1 PUSH1 0x0 PUSH1 0x80 DUP9 DUP11 SUB SLT ISZERO PUSH2 0xE4C JUMPI PUSH2 0xE4B PUSH2 0xA3E JUMP JUMPDEST JUMPDEST PUSH1 0x0 PUSH2 0xE5A DUP11 DUP3 DUP12 ADD PUSH2 0xA91 JUMP JUMPDEST SWAP8 POP POP PUSH1 0x20 DUP9 ADD CALLDATALOAD PUSH8 0xFFFFFFFFFFFFFFFF DUP2 GT ISZERO PUSH2 0xE7B JUMPI PUSH2 0xE7A PUSH2 0xA43 JUMP JUMPDEST JUMPDEST PUSH2 0xE87 DUP11 DUP3 DUP12 ADD PUSH2 0xC2F JUMP JUMPDEST SWAP7 POP SWAP7 POP POP PUSH1 0x40 DUP9 ADD CALLDATALOAD PUSH8 0xFFFFFFFFFFFFFFFF DUP2 GT ISZERO PUSH2 0xEAA JUMPI PUSH2 0xEA9 PUSH2 0xA43 JUMP JUMPDEST JUMPDEST PUSH2 0xEB6 DUP11 DUP3 DUP12 ADD PUSH2 0xC2F JUMP JUMPDEST SWAP5 POP SWAP5 POP POP PUSH1 0x60 DUP9 ADD CALLDATALOAD PUSH8 0xFFFFFFFFFFFFFFFF DUP2 GT ISZERO PUSH2 0xED9 JUMPI PUSH2 0xED8 PUSH2 0xA43 JUMP JUMPDEST JUMPDEST PUSH2 0xEE5 DUP11 DUP3 DUP12 ADD PUSH2 0xCDB JUMP JUMPDEST SWAP3 POP SWAP3 POP POP SWAP3 SWAP6 SWAP9 SWAP2 SWAP5 SWAP8 POP SWAP3 SWAP6 POP JUMP JUMPDEST PUSH1 0x0 DUP3 DUP3 MSTORE PUSH1 0x20 DUP3 ADD SWAP1 POP SWAP3 SWAP2 POP POP JUMP JUMPDEST PUSH32 0x546F6B656E20646F6573206E6F74206578697374000000000000000000000000 PUSH1 0x0 DUP3 ADD MSTORE POP JUMP JUMPDEST PUSH1 0x0 PUSH2 0xF3D PUSH1 0x14 DUP4 PUSH2 0xEF6 JUMP JUMPDEST SWAP2 POP PUSH2 0xF48 DUP3 PUSH2 0xF07 JUMP JUMPDEST PUSH1 0x20 DUP3 ADD SWAP1 POP SWAP2 SWAP1 POP JUMP JUMPDEST PUSH1 0x0 PUSH1 0x20 DUP3 ADD SWAP1 POP DUP2 DUP2 SUB PUSH1 0x0 DUP4 ADD MSTORE PUSH2 0xF6C DUP2 PUSH2 0xF30 JUMP JUMPDEST SWAP1 POP SWAP2 SWAP1 POP JUMP JUMPDEST PUSH32 0x496E76616C6964206174746573746174696F6E206B696E640000000000000000 PUSH1 0x0 DUP3 ADD MSTORE POP JUMP JUMPDEST PUSH1 0x0 PUSH2 0xFA9 PUSH1 0x18 DUP4 PUSH2 0xEF6 JUMP JUMPDEST SWAP2 POP PUSH2 0xFB4 DUP3 PUSH2 0xF73 JUMP JUMPDEST PUSH1 0x20 DUP3 ADD SWAP1 POP SWAP2 SWAP1 POP JUMP JUMPDEST PUSH1 0x0 PUSH1 0x20 DUP3 ADD SWAP1 POP DUP2 DUP2 SUB PUSH1 0x0 DUP4 ADD MSTORE PUSH2 0xFD8 DUP2 PUSH2 0xF9C JUMP JUMPDEST SWAP1 POP SWAP2 SWAP1 POP JUMP JUMPDEST PUSH2 0xFE8 DUP2 PUSH2 0xB08 JUMP JUMPDEST DUP3 MSTORE POP POP JUMP JUMPDEST PUSH1 0x0 PUSH1 0x60 DUP3 ADD SWAP1 POP PUSH2 0x1003 PUSH1 0x0 DUP4 ADD DUP7 PUSH2 0xA14 JUMP JUMPDEST PUSH2 0x1010 PUSH1 0x20 DUP4 ADD DUP6 PUSH2 0xFDF JUMP JUMPDEST PUSH2 0x101D PUSH1 0x40 DUP4 ADD DUP5 PUSH2 0xFDF JUMP JUMPDEST SWAP5 SWAP4 POP POP POP POP JUMP JUMPDEST PUSH32 0x506172656E7420746F6B656E20646F6573206E6F742065786973740000000000 PUSH1 0x0 DUP3 ADD MSTORE POP JUMP JUMPDEST PUSH1 0x0 PUSH2 0x105B PUSH1 0x1B DUP4 PUSH2 0xEF6 JUMP JUMPDEST SWAP2 POP PUSH2 0x1066 DUP3 PUSH2 0x1025 JUMP JUMPDEST PUSH1 0x20 DUP3 ADD SWAP1 POP SWAP2 SWAP1 POP JUMP JUMPDEST PUSH1 0x0 PUSH1 0x20 DUP3 ADD SWAP1 POP DUP2 DUP2 SUB PUSH1 0x0 DUP4 ADD MSTORE PUSH2 0x108A DUP2 PUSH2 0x104E JUMP JUMPDEST SWAP1 POP SWAP2 SWAP1 POP JUMP JUMPDEST PUSH32 0x4368696C6420746F6B656E20646F6573206E6F74206578697374000000000000 PUSH1 0x0 DUP3 ADD MSTORE POP JUMP JUMPDEST PUSH1 0x0 PUSH2 0x10C7 PUSH1 0x1A DUP4 PUSH2 0xEF6 JUMP JUMPDEST SWAP2 POP PUSH2 0x10D2 DUP3 PUSH2 0x1091 JUMP JUMPDEST PUSH1 0x20 DUP3 ADD SWAP1 POP SWAP2 SWAP1 POP JUMP JUMPDEST PUSH1 0x0 PUSH1 0x20 DUP3 ADD SWAP1 POP DUP2 DUP2 SUB PUSH1 0x0 DUP4 ADD MSTORE PUSH2 0x10F6 DUP2 PUSH2 0x10BA JUMP JUMPDEST SWAP1 POP SWAP2 SWAP1 POP JUMP JUMPDEST PUSH32 0x43616E6E6F74206465726976652066726F6D2073656C66000000000000000000 PUSH1 0x0 DUP3 ADD MSTORE POP JUMP JUMPDEST PUSH1 0x0 PUSH2 0x1133 PUSH1 0x17 DUP4 PUSH2 0xEF6 JUMP JUMPDEST SWAP2 POP PUSH2 0x113E DUP3 PUSH2 0x10FD JUMP JUMPDEST PUSH1 0x20 DUP3 ADD SWAP1 POP SWAP2 SWAP1 POP JUMP JUMPDEST PUSH1 0x0 PUSH1 0x20 DUP3 ADD SWAP1 POP DUP2 DUP2 SUB PUSH1 0x0 DUP4 ADD MSTORE PUSH2 0x1162 DUP2 PUSH2 0x1126 JUMP JUMPDEST SWAP1 POP SWAP2 SWAP1 POP JUMP JUMPDEST PUSH2 0x1172 DUP2 PUSH2 0xA68 JUMP JUMPDEST DUP3 MSTORE POP POP JUMP JUMPDEST PUSH1 0x0 PUSH1 0x40 DUP3 ADD SWAP1 POP PUSH2 0x118D PUSH1 0x0 DUP4 ADD DUP6 PUSH2 0x1169 JUMP JUMPDEST PUSH2 0x119A PUSH1 0x20 DUP4 ADD DUP5 PUSH2 0xFDF JUMP JUMPDEST SWAP4 SWAP3 POP POP POP JUMP JUMPDEST PUSH32 0x417272617973206C656E677468206D69736D6174636800000000000000000000 PUSH1 0x0 DUP3 ADD MSTORE POP JUMP JUMPDEST PUSH1 0x0 PUSH2 0x11D7 PUSH1 0x16 DUP4 PUSH2 0xEF6 JUMP JUMPDEST SWAP2 POP PUSH2 0x11E2 DUP3 PUSH2 0x11A1 JUMP JUMPDEST PUSH1 0x20 DUP3 ADD SWAP1 POP SWAP2 SWAP1 POP JUMP JUMPDEST PUSH1 0x0 PUSH1 0x20 DUP3 ADD SWAP1 POP DUP2 DUP2 SUB PUSH1 0x0 DUP4 ADD MSTORE PUSH2 0x1206 DUP2 PUSH2 0x11CA JUMP JUMPDEST SWAP1 POP SWAP2 SWAP1 POP JUMP JUMPDEST PUSH32 0x4E487B7100000000000000000000000000000000000000000000000000000000 PUSH1 0x0 MSTORE PUSH1 0x32 PUSH1 0x4 MSTORE PUSH1 0x24 PUSH1 0x0 REVERT JUMPDEST PUSH1 0x0 PUSH1 0x20 DUP3 DUP5 SUB SLT ISZERO PUSH2 0x1252 JUMPI PUSH2 0x1251 PUSH2 0xA3E JUMP JUMPDEST JUMPDEST PUSH1 0x0 PUSH2 0x1260 DUP5 DUP3 DUP6 ADD PUSH2 0xAF3 JUMP JUMPDEST SWAP2 POP POP SWAP3 SWAP2 POP POP JUMP JUMPDEST PUSH32 0x4E487B7100000000000000000000000000000000000000000000000000000000 PUSH1 0x0 MSTORE PUSH1 0x11 PUSH1 0x4 MSTORE PUSH1 0x24 PUSH1 0x0 REVERT JUMPDEST PUSH1 0x0 PUSH2 0x12A3 DUP3 PUSH2 0xAA6 JUMP JUMPDEST SWAP2 POP PUSH32 0xFFFFFFFFFFFFFFFFFFFFFFFFFFFFFFFFFFFFFFFFFFFFFFFFFFFFFFFFFFFFFFFF DUP3 SUB PUSH2 0x12D5 JUMPI PUSH2 0x12D4 PUSH2 0x1269 JUMP JUMPDEST JUMPDEST PUSH1 0x1 DUP3 ADD SWAP1 POP SWAP2 SWAP1 POP JUMP JUMPDEST PUSH2 0x12E9 DUP2 PUSH2 0xAA6 JUMP JUMPDEST DUP3 MSTORE POP POP JUMP JUMPDEST PUSH1 0x0 PUSH1 0x20 DUP3 ADD SWAP1 POP PUSH2 0x1304 PUSH1 0x0 DUP4 ADD DUP5 PUSH2 0x12E0 JUMP JUMPDEST SWAP3 SWAP2 POP POP JUMP JUMPDEST PUSH1 0x0 DUP2 MLOAD SWAP1 POP PUSH2 0x1319 DUP2 PUSH2 0xA7A JUMP JUMPDEST SWAP3 SWAP2 POP POP JUMP JUMPDEST PUSH1 0x0 PUSH1 0x20 DUP3 DUP5 SUB SLT ISZERO PUSH2 0x1335 JUMPI PUSH2 0x1334 PUSH2 0xA3E JUMP JUMPDEST JUMPDEST PUSH1 0x0 PUSH2 0x1343 DUP5 DUP3 DUP6 ADD PUSH2 0x130A JUMP JUMPDEST SWAP2 POP POP SWAP3 SWAP2 POP POP JUMP INVALID LOG2 PUSH5 0x6970667358 0x22 SLT KECCAK256 PUSH25 0xA8454B256132A07A77FDA2C5F62EBFED4DE14773F8F6A1645A 0x29 SLOAD SHL PUSH8 0xD05964736F6C6343 STOP ADDMOD EQ STOP CALLER "},"methodIdentifiers":{"KIND_LICENSE()":"e7b84d07","KIND_QUALITY()":"38e40eec","KIND_REVIEW()":"cd615d16","KIND_SOURCE()":"4691005d","attest(address,uint256,uint8,bytes32,bytes32)":"94c3c389","attestBatch(address,uint256[],uint8[],bytes32[],bytes32[])":"b310f6d2","derive(address,uint256,uint256,bytes32)":"a32868bc","deriveBatch(address,uint256[],uint256[],bytes32[])":"b4b13242"}}}}}