{
  "_format": "hh-sol-artifact-1",
  "contractName": "ProvenanceRegistryV2",
  "sourceName": "contracts/ProvenanceRegistryV2.sol",
  "abi": [
    {
      "anonymous": false,
      "inputs": [
        {
          "indexed": true,
          "internalType": "address",
          "name": "nft",
          "type": "address"
        },
        {
          "indexed": true,
          "internalType": "uint256",
          "name": "tokenId",
          "type": "uint256"
        },
        {
          "indexed": true,
          "internalType": "address",
          "name": "attester",
          "type": "address"
        },
        {
          "indexed": false,
          "internalType": "uint8",
          "name": "kind",
          "type": "uint8"
        },
        {
          "indexed": false,
          "internalType": "bytes32",
          "name": "ref",
          "type": "bytes32"
        },
        {
          "indexed": false,
          "internalType": "bytes32",
          "name": "payloadHash",
          "type": "bytes32"
        }
      ],
      "name": "Attested",
      "type": "event"
    },
    {
      "anonymous": false,
      "inputs": [
        {
          "indexed": true,
          "internalType": "address",
          "name": "nft",
          "type": "address"
        },
        {
          "indexed": true,
          "internalType": "uint256",
          "name": "parentId",
          "type": "uint256"
        },
        {
          "indexed": true,
          "internalType": "uint256",
          "name": "childId",
          "type": "uint256"
        },
        {
          "indexed": false,
          "internalType": "address",
          "name": "actor",
          "type": "address"
        },
        {
          "indexed": false,
          "internalType": "bytes32",
          "name": "ref",
          "type": "bytes32"
        }
      ],
      "name": "Derived",
      "type": "event"
    },
    {
      "inputs": [],
      "name": "KIND_LICENSE",
      "outputs": [
        {
          "internalType": "uint8",
          "name": "",
          "type": "uint8"
        }
      ],
      "stateMutability": "view",
      "type": "function"
    },
    {
      "inputs": [],
      "name": "KIND_QUALITY",
      "outputs": [
        {
          "internalType": "uint8",
          "name": "",
          "type": "uint8"
        }
      ],
      "stateMutability": "view",
      "type": "function"
    },
    {
      "inputs": [],
      "name": "KIND_REVIEW",
      "outputs": [
        {
          "internalType": "uint8",
          "name": "",
          "type": "uint8"
        }
      ],
      "stateMutability": "view",
      "type": "function"
    },
    {
      "inputs": [],
      "name": "KIND_SOURCE",
      "outputs": [
        {
          "internalType": "uint8",
          "name": "",
          "type": "uint8"
        }
      ],
      "stateMutability": "view",
      "type": "function"
    },
    {
      "inputs": [
        {
          "internalType": "address",
          "name": "nft",
          "type": "address"
        },
        {
          "internalType": "uint256",
          "name": "tokenId",
          "type": "uint256"
        },
        {
          "internalType": "uint8",
          "name": "kind",
          "type": "uint8"
        },
        {
          "internalType": "bytes32",
          "name": "ref",
          "type": "bytes32"
        },
        {
          "internalType": "bytes32",
          "name": "payloadHash",
          "type": "bytes32"
        }
      ],
      "name": "attest",
      "outputs": [],
      "stateMutability": "nonpayable",
      "type": "function"
    },
    {
      "inputs": [
        {
          "internalType": "address",
          "name": "nft",
          "type": "address"
        },
        {
          "internalType": "uint256[]",
          "name": "tokenIds",
          "type": "uint256[]"
        },
        {
          "internalType": "uint8[]",
          "name": "kinds",
          "type": "uint8[]"
        },
        {
          "internalType": "bytes32[]",
          "name": "refs",
          "type": "bytes32[]"
        },
        {
          "internalType": "bytes32[]",
          "name": "payloadHashes",
          "type": "bytes32[]"
        }
      ],
      "name": "attestBatch",
      "outputs": [],
      "stateMutability": "nonpayable",
      "type": "function"
    },
    {
      "inputs": [
        {
          "internalType": "address",
          "name": "nft",
          "type": "address"
        },
        {
          "internalType": "uint256",
          "name": "parentId",
          "type": "uint256"
        },
        {
          "internalType": "uint256",
          "name": "childId",
          "type": "uint256"
        },
        {
          "internalType": "bytes32",
          "name": "ref",
          "type": "bytes32"
        }
      ],
      "name": "derive",
      "outputs": [],
      "stateMutability": "nonpayable",
      "type": "function"
    },
    {
      "inputs": [
        {
          "internalType": "address",
          "name": "nft",
          "type": "address"
        },
        {
          "internalType": "uint256[]",
          "name": "parentIds",
          "type": "uint256[]"
        },
        {
          "internalType": "uint256[]",
          "name": "childIds",
          "type": "uint256[]"
        },
        {
          "internalType": "bytes32[]",
          "name": "refs",
          "type": "bytes32[]"
        }
      ],
      "name": "deriveBatch",
      "outputs": [],
      "stateMutability": "nonpayable",
      "type": "function"
    }
  ],
  "bytecode": "0x608060405234801561001057600080fd5b50611382806100206000396000f3fe608060405234801561001057600080fd5b50600436106100885760003560e01c8063b310f6d21161005b578063b310f6d214610101578063b4b132421461011d578063cd615d1614610139578063e7b84d071461015757610088565b806338e40eec1461008d5780634691005d146100ab57806394c3c389146100c9578063a32868bc146100e5575b600080fd5b610095610175565b6040516100a29190610a23565b60405180910390f35b6100b361017a565b6040516100c09190610a23565b60405180910390f35b6100e360048036038101906100de9190610b3e565b61017f565b005b6100ff60048036038101906100fa9190610bb9565b610296565b005b61011b60048036038101906101169190610d31565b6103c2565b005b61013760048036038101906101329190610e2d565b6106b0565b005b610141610940565b60405161014e9190610a23565b60405180910390f35b61015f610945565b60405161016c9190610a23565b60405180910390f35b600281565b600181565b610189858561094a565b6101c8576040517f08c379a00000000000000000000000000000000000000000000000000000000081526004016101bf90610f53565b60405180910390fd5b600160ff168360ff16101580156101e65750600460ff168360ff1611155b610225576040517f08c379a000000000000000000000000000000000000000000000000000000000815260040161021c90610fbf565b60405180910390fd5b3373ffffffffffffffffffffffffffffffffffffffff16848673ffffffffffffffffffffffffffffffffffffffff167fa9c8c4722738c59fcc73e8b346e6fcb4851cf6ffe74c7c1e9211f104d6dedb3b86868660405161028793929190610fee565b60405180910390a45050505050565b6102a0848461094a565b6102df576040517f08c379a00000000000000000000000000000000000000000000000000000000081526004016102d690611071565b60405180910390fd5b6102e9848361094a565b610328576040517f08c379a000000000000000000000000000000000000000000000000000000000815260040161031f906110dd565b60405180910390fd5b81830361036a576040517f08c379a000000000000000000000000000000000000000000000000000000000815260040161036190611149565b60405180910390fd5b81838573ffffffffffffffffffffffffffffffffffffffff167f3d0a41f78d928f45f5657b4be7121b33ad983ce0f8ede1c599b93affc6356f4033856040516103b4929190611178565b60405180910390a450505050565b85859050888890501461040a576040517f08c379a0000000000000000000000000000000000000000000000000000000008152600401610401906111ed565b60405180910390fd5b838390508888905014610452576040517f08c379a0000000000000000000000000000000000000000000000000000000008152600401610449906111ed565b60405180910390fd5b81819050888890501461049a576040517f08c379a0000000000000000000000000000000000000000000000000000000008152600401610491906111ed565b60405180910390fd5b60005b888890508110156106a4576104cb8a8a8a848181106104bf576104be61120d565b5b9050602002013561094a565b61050a576040517f08c379a000000000000000000000000000000000000000000000000000000000815260040161050190610f53565b60405180910390fd5b600160ff168787838181106105225761052161120d565b5b9050602002016020810190610537919061123c565b60ff16101580156105765750600460ff1687878381811061055b5761055a61120d565b5b9050602002016020810190610570919061123c565b60ff1611155b6105b5576040517f08c379a00000000000000000000000000000000000000000000000000000000081526004016105ac90610fbf565b60405180910390fd5b3373ffffffffffffffffffffffffffffffffffffffff168989838181106105df576105de61120d565b5b905060200201358b73ffffffffffffffffffffffffffffffffffffffff167fa9c8c4722738c59fcc73e8b346e6fcb4851cf6ffe74c7c1e9211f104d6dedb3b8a8a868181106106315761063061120d565b5b9050602002016020810190610646919061123c565b8989878181106106595761065861120d565b5b905060200201358888888181106106735761067261120d565b5b9050602002013560405161068993929190610fee565b60405180910390a4808061069c90611298565b91505061049d565b50505050505050505050565b8383905086869050146106f8576040517f08c379a00000000000000000000000000000000000000000000000000000000081526004016106ef906111ed565b60405180910390fd5b818190508686905014610740576040517f08c379a0000000000000000000000000000000000000000000000000000000008152600401610737906111ed565b60405180910390fd5b60005b8686905081101561093657610771888888848181106107655761076461120d565b5b9050602002013561094a565b6107b0576040517f08c379a00000000000000000000000000000000000000000000000000000000081526004016107a790611071565b60405180910390fd5b6107d3888686848181106107c7576107c661120d565b5b9050602002013561094a565b610812576040517f08c379a0000000000000000000000000000000000000000000000000000000008152600401610809906110dd565b60405180910390fd5b8484828181106108255761082461120d565b5b9050602002013587878381811061083f5761083e61120d565b5b9050602002013503610886576040517f08c379a000000000000000000000000000000000000000000000000000000000815260040161087d90611149565b60405180910390fd5b8484828181106108995761089861120d565b5b905060200201358787838181106108b3576108b261120d565b5b905060200201358973ffffffffffffffffffffffffffffffffffffffff167f3d0a41f78d928f45f5657b4be7121b33ad983ce0f8ede1c599b93affc6356f40338787878181106109065761090561120d565b5b9050602002013560405161091b929190611178565b60405180910390a4808061092e90611298565b915050610743565b5050505050505050565b600381565b600481565b60008273ffffffffffffffffffffffffffffffffffffffff16636352211e836040518263ffffffff1660e01b815260040161098591906112ef565b602060405180830381865afa9250505080156109bf57506040513d601f19601f820116820180604052508101906109bc919061131f565b60015b6109cc5760009050610a01565b600073ffffffffffffffffffffffffffffffffffffffff168173ffffffffffffffffffffffffffffffffffffffff1614159150505b92915050565b600060ff82169050919050565b610a1d81610a07565b82525050565b6000602082019050610a386000830184610a14565b92915050565b600080fd5b600080fd5b600073ffffffffffffffffffffffffffffffffffffffff82169050919050565b6000610a7382610a48565b9050919050565b610a8381610a68565b8114610a8e57600080fd5b50565b600081359050610aa081610a7a565b92915050565b6000819050919050565b610ab981610aa6565b8114610ac457600080fd5b50565b600081359050610ad681610ab0565b92915050565b610ae581610a07565b8114610af057600080fd5b50565b600081359050610b0281610adc565b92915050565b6000819050919050565b610b1b81610b08565b8114610b2657600080fd5b50565b600081359050610b3881610b12565b92915050565b600080600080600060a08688031215610b5a57610b59610a3e565b5b6000610b6888828901610a91565b9550506020610b7988828901610ac7565b9450506040610b8a88828901610af3565b9350506060610b9b88828901610b29565b9250506080610bac88828901610b29565b9150509295509295909350565b60008060008060808587031215610bd357610bd2610a3e565b5b6000610be187828801610a91565b9450506020610bf287828801610ac7565b9350506040610c0387828801610ac7565b9250506060610c1487828801610b29565b91505092959194509250565b600080fd5b600080fd5b600080fd5b60008083601f840112610c4557610c44610c20565b5b8235905067ffffffffffffffff811115610c6257610c61610c25565b5b602083019150836020820283011115610c7e57610c7d610c2a565b5b9250929050565b60008083601f840112610c9b57610c9a610c20565b5b8235905067ffffffffffffffff811115610cb857610cb7610c25565b5b602083019150836020820283011115610cd457610cd3610c2a565b5b9250929050565b60008083601f840112610cf157610cf0610c20565b5b8235905067ffffffffffffffff811115610d0e57610d0d610c25565b5b602083019150836020820283011115610d2a57610d29610c2a565b5b9250929050565b600080600080600080600080600060a08a8c031215610d5357610d52610a3e565b5b6000610d618c828d01610a91565b99505060208a013567ffffffffffffffff811115610d8257610d81610a43565b5b610d8e8c828d01610c2f565b985098505060408a013567ffffffffffffffff811115610db157610db0610a43565b5b610dbd8c828d01610c85565b965096505060608a013567ffffffffffffffff811115610de057610ddf610a43565b5b610dec8c828d01610cdb565b945094505060808a013567ffffffffffffffff811115610e0f57610e0e610a43565b5b610e1b8c828d01610cdb565b92509250509295985092959850929598565b60008060008060008060006080888a031215610e4c57610e4b610a3e565b5b6000610e5a8a828b01610a91565b975050602088013567ffffffffffffffff811115610e7b57610e7a610a43565b5b610e878a828b01610c2f565b9650965050604088013567ffffffffffffffff811115610eaa57610ea9610a43565b5b610eb68a828b01610c2f565b9450945050606088013567ffffffffffffffff811115610ed957610ed8610a43565b5b610ee58a828b01610cdb565b925092505092959891949750929550565b600082825260208201905092915050565b7f546f6b656e20646f6573206e6f74206578697374000000000000000000000000600082015250565b6000610f3d601483610ef6565b9150610f4882610f07565b602082019050919050565b60006020820190508181036000830152610f6c81610f30565b9050919050565b7f496e76616c6964206174746573746174696f6e206b696e640000000000000000600082015250565b6000610fa9601883610ef6565b9150610fb482610f73565b602082019050919050565b60006020820190508181036000830152610fd881610f9c565b9050919050565b610fe881610b08565b82525050565b60006060820190506110036000830186610a14565b6110106020830185610fdf565b61101d6040830184610fdf565b949350505050565b7f506172656e7420746f6b656e20646f6573206e6f742065786973740000000000600082015250565b600061105b601b83610ef6565b915061106682611025565b602082019050919050565b6000602082019050818103600083015261108a8161104e565b9050919050565b7f4368696c6420746f6b656e20646f6573206e6f74206578697374000000000000600082015250565b60006110c7601a83610ef6565b91506110d282611091565b602082019050919050565b600060208201905081810360008301526110f6816110ba565b9050919050565b7f43616e6e6f74206465726976652066726f6d2073656c66000000000000000000600082015250565b6000611133601783610ef6565b915061113e826110fd565b602082019050919050565b6000602082019050818103600083015261116281611126565b9050919050565b61117281610a68565b82525050565b600060408201905061118d6000830185611169565b61119a6020830184610fdf565b9392505050565b7f417272617973206c656e677468206d69736d6174636800000000000000000000600082015250565b60006111d7601683610ef6565b91506111e2826111a1565b602082019050919050565b60006020820190508181036000830152611206816111ca565b9050919050565b7f4e487b7100000000000000000000000000000000000000000000000000000000600052603260045260246000fd5b60006020828403121561125257611251610a3e565b5b600061126084828501610af3565b91505092915050565b7f4e487b7100000000000000000000000000000000000000000000000000000000600052601160045260246000fd5b60006112a382610aa6565b91507fffffffffffffffffffffffffffffffffffffffffffffffffffffffffffffffff82036112d5576112d4611269565b5b600182019050919050565b6112e981610aa6565b82525050565b600060208201905061130460008301846112e0565b92915050565b60008151905061131981610a7a565b92915050565b60006020828403121561133557611334610a3e565b5b60006113438482850161130a565b9150509291505056fea264697066735822122078a8454b256132a07a77fda2c5f62ebfed4de14773f8f6a1645a29541b67d05964736f6c63430008140033",
  "linkReferences": {},
  "deployedLinkReferences": {}
}